:020000040800F2
:1000000000500020ED1A0008051A00080B1A00081D
:10001000111A0008171A00081D1A00080000000035
:10002000000000000000000000000000231A00088B
:100030002F1A0008000000003B1A0008471A0008A9
:10004000351B0008351B0008351B0008351B000850
:10005000351B0008351B0008351B0008351B000840
:10006000351B0008351B0008531A0008611A0008E8
:10007000351B0008351B0008351B0008351B000820
:10008000351B0008351B0008351B0008351B000810
:10009000351B0008351B0008351B0008351B000800
:1000A000351B0008351B0008351B0008351B0008F0
:1000B000351B0008351B0008351B0008351B0008E0
:1000C000351B0008351B0008351B0008351B0008D0
:1000D000351B0008351B0008351B0008351B0008C0
:1000E000351B0008351B0008351B00080000000008
:1000F0000000000000000000000000000000000000
:0C01000000000000000000005FF808F1A3
:1001100010B5054C237833B9044B13B10448AFF341
:1001200000800123237010BD60000020000000004B
:100130004C58000808B5034B1BB103490348AFF303
:10014000008008BD00000000640000204C5800083A
:1001500070B54FF0FF0C4CF4E06C1CEA11541DBF5D
:100160001CEA135594EA0C0F95EA0C0F00F0DEF828
:100170002C4481EA030621EA4C5123EA4C5350EA0D
:10018000013518BF52EA033541F4801143F480135E
:1001900038D0A0FB02CE4FF00005E1FB02E506F0EF
:1001A0000042E0FB03E54FF00006E1FB03569CF044
:1001B000000F18BF4EF0010EA4F1FF04B6F5007F4A
:1001C00064F5407404D25FEA4E0E6D4146EB0606BC
:1001D00042EAC62141EA55514FEAC52040EA5E5045
:1001E0004FEACE2EB4F1FD0C88BFBCF5E06F1ED8EF
:1001F000BEF1004F08BF5FEA500E50F1000041EB26
:10020000045170BD06F0004646EA010140EA0200D2
:1002100081EA0301B4EB5C04C2BFD4EB0C0541EAF4
:10022000045170BD41F480114FF0000E013C00F309
:10023000AB8014F1360FDEBF002001F0004170BD2D
:10024000C4F10004203C35DA0C341BDC04F1140446
:10025000C4F1200500FA05F320FA04F001FA05F2D2
:1002600040EA020001F0004221F0004110EBD3709F
:1002700021FA04F642EB06015EEA430E08BF20EACB
:10028000D37070BDC4F10C04C4F1200500FA04F36E
:1002900020FA05F001FA04F240EA020001F0004100
:1002A00010EBD37041F100015EEA430E08BF20EA73
:1002B000D37070BDC4F1200500FA05F24EEA020EBB
:1002C00020FA04F301FA05F243EA020321FA04F0EA
:1002D00001F0004121FA04F220EA020000EBD370A1
:1002E0005EEA430E08BF20EAD37070BD94F0000FA1
:1002F0000FD101F00046400041EB010111F4801FD5
:1003000008BF013CF7D041EA060195F0000F18BF85
:10031000704703F00046520043EB030313F4801FC1
:1003200008BF013DF7D043EA0603704794EA0C0F7B
:100330000CEA135518BF95EA0C0F0CD050EA410691
:1003400018BF52EA4306D1D181EA030101F000410E
:100350004FF0000070BD50EA410606BF1046194636
:1003600052EA430619D094EA0C0F02D150EA013642
:1003700013D195EA0C0F05D152EA03361CBF104683
:1003800019460AD181EA030101F0004141F0FE4122
:1003900041F470014FF0000070BD41F0FE4141F4A6
:1003A000780170BD81F0004102E000BF83F000439E
:1003B00030B54FEA41044FEA430594EA050F08BF00
:1003C00090EA020F1FBF54EA000C55EA020C7FEAC4
:1003D000645C7FEA655C00F0E2804FEA5454D4EB41
:1003E0005555B8BF6D420CDD2C4480EA020281EA0B
:1003F000030382EA000083EA010180EA020281EA43
:100400000303362D88BF30BD11F0004F4FEA013194
:100410004FF4801C4CEA113102D0404261EB4101A3
:1004200013F0004F4FEA03334CEA133302D0524229
:1004300063EB430394EA050F00F0A780A4F10104E5
:10044000D5F1200E0DDB02FA0EFC22FA05F280181F
:1004500041F1000103FA0EF2801843FA05F3594105
:100460000EE0A5F120050EF1200E012A03FA0EFC84
:1004700028BF4CF0020C43FA05F3C01851EBE371AE
:1004800001F0004507D54FF0000EDCF1000C7EEBCB
:1004900000006EEB0101B1F5801F1BD3B1F5001F09
:1004A0000CD349085FEA30004FEA3C0C04F1010428
:1004B0004FEA445212F5800F80F09A80BCF1004F51
:1004C00008BF5FEA500C50F1000041EB045141EAD3
:1004D000050130BD5FEA4C0C404141EB0101013C9C
:1004E00028BFB1F5801FE9D291F0000F04BF01468B
:1004F0000020B1FA81F308BF2033A3F10B03B3F15D
:1005000020020CDA0C3208DD02F1140CC2F10C02EC
:1005100001FA0CF021FA02F10CE002F11402D8BF4A
:10052000C2F1200C01FA02F120FA0CFCDCBF41EA16
:100530000C019040E41AA2BF01EB0451294330BDE5
:100540006FEA04041F3C1CDA0C340EDC04F11404C2
:10055000C4F1200220FA04F001FA02F340EA030099
:1005600021FA04F345EA030130BDC4F10C04C4F1DF
:10057000200220FA02F001FA04F340EA03002946BF
:1005800030BD21FA04F0294630BD94F0000F83F409
:10059000801306BF81F480110134013D4EE77FEAEC
:1005A000645C18BF7FEA655C29D094EA050F08BF38
:1005B00090EA020F05D054EA000C04BF1946104619
:1005C00030BD91EA030F1EBF0021002030BD5FEA5D
:1005D000545C05D14000494128BF41F0004130BD85
:1005E00014F580043CBF01F5801130BD01F00045D9
:1005F00045F0FE4141F470014FF0000030BD7FEA4C
:10060000645C1ABF194610467FEA655C1CBF0B4646
:10061000024650EA013406BF52EA033591EA030F5D
:1006200041F4002130BD00BF90F0000F04BF002155
:10063000704730B54FF4806404F132044FF0000588
:100640004FF0000150E700BF90F0000F04BF002101
:10065000704730B54FF4806404F1320410F0004567
:1006600048BF40424FF000013EE700BF42004FEA62
:10067000E2014FEA31014FEA02701FBF12F07F43DF
:1006800093F07F4F81F06051704732F07F4208BF96
:10069000704793F07F4F04BF41F40021704730B59D
:1006A0004FF4607401F0004521F000411CE700BFE9
:1006B00050EA010208BF704730B54FF000050AE06C
:1006C00050EA010208BF704730B511F0004502D56D
:1006D000404261EB41014FF4806404F132045FEA6F
:1006E000915C3FF4D8AE4FF003025FEADC0C18BF18
:1006F00003325FEADC0C18BF033202EBDC02C2F10A
:10070000200300FA03FC20FA02F001FA03FE40EA9B
:100710000E0021FA02F11444BDE600BF4FEA410287
:10072000B2F1E04324BFB3F5001CDCF1FE5C0DD94F
:1007300001F0004C4FEAC0024CEA5070B2F1004F99
:1007400040EB830008BF20F00100704711F0804F9C
:1007500021D113F13872BCBF01F00040704741F461
:1007600080114FEA5252C2F11802C2F1200C10FA65
:100770000CF320FA02F018BF40F001004FEAC12349
:100780004FEAD32303FA0CFC40EA0C0023FA02F3ED
:100790004FEA4303CCE77FEA625307D150EA0133C3
:1007A0001EBF4FF0FE4040F44000704701F0004093
:1007B00040F0FE4040F40000704700BF80F0004071
:1007C00002E000BF81F0004142001FBF5FEA410329
:1007D00092EA030F7FEA226C7FEA236C6AD04FEA29
:1007E0001262D2EB1363C1BFD2184140484041406E
:1007F000B8BF5B42192B88BF704710F0004F40F420
:10080000000020F07F4018BF404211F0004F41F43B
:10081000000121F07F4118BF494292EA030F3FD007
:10082000A2F1010241FA03FC10EB0C00C3F120031A
:1008300001FA03F100F0004302D5494260EB4000A9
:10084000B0F5000F13D3B0F1807F06D340084FEA14
:10085000310102F10102FE2A51D2B1F1004F40EB09
:10086000C25008BF20F0010040EA03007047490071
:1008700040EB0000013A28BFB0F5000FEDD2B0FA0E
:1008800080FCACF1080CB2EB0C0200FA0CF0AABF31
:1008900000EBC25052421843BCBFD04018437047CF
:1008A00092F0000F81F4000106BF80F400000132D5
:1008B000013BB5E74FEA41037FEA226C18BF7FEAAC
:1008C000236C21D092EA030F04D092F0000F08BFEE
:1008D0000846704790EA010F1CBF0020704712F0D5
:1008E0007F4F04D1400028BF40F00040704712F114
:1008F00000723CBF00F50000704700F0004343F079
:10090000FE4040F4000070477FEA226216BF0846AE
:100910007FEA23630146420206BF5FEA412390EA71
:10092000010F40F4800070474FF0000304E000BF67
:1009300010F0004348BF40425FEA000C08BF704718
:1009400043F0964301464FF000001CE050EA0102DC
:1009500008BF70474FF000030AE000BF50EA0102F1
:1009600008BF704711F0004302D5404261EB4101DE
:100970005FEA010C02BF84460146002043F0B64303
:1009800008BFA3F18053A3F50003BCFA8CF2083A28
:10099000A3EBC25310DB01FA02FC634400FA02FC31
:1009A000C2F12002BCF1004F20FA02F243EB020038
:1009B00008BF20F00100704702F1200201FA02FC9A
:1009C000C2F1200250EA4C0021FA02F243EB02008D
:1009D00008BF20EADC7070474FF0FF0C1CEAD052D1
:1009E0001EBF1CEAD15392EA0C0F93EA0C0F6FD092
:1009F0001A4480EA010C400218BF5FEA41211ED070
:100A00004FF0006343EA501043EA5111A0FB01315B
:100A10000CF00040B1F5000F3EBF490041EAD37130
:100A20005B0040EA010062F17F02FD2A1DD8B3F1AC
:100A3000004F40EBC25008BF20F00100704790F01B
:100A4000000F0CF0004C08BF49024CEA502040EA6D
:100A500051207F3AC2BFD2F1FF0340EAC250704733
:100A600040F400004FF00003013A5DDC12F1190F71
:100A7000DCBF00F000407047C2F10002410021FAE3
:100A800002F1C2F1200200FA02FC5FEA310040F1FB
:100A9000000053EA4C0308BF20EADC70704792F074
:100AA000000F00F0004C02BF400010F4000F013AAC
:100AB000F9D040EA0C0093F0000F01F0004C02BFA7
:100AC000490011F4000F013BF9D041EA0C018FE716
:100AD0000CEAD15392EA0C0F18BF93EA0C0F0AD01C
:100AE00030F0004C18BF31F0004CD8D180EA010042
:100AF00000F00040704790F0000F17BF90F0004FDB
:100B0000084691F0000F91F0004F14D092EA0C0FBC
:100B100001D142020FD193EA0C0F03D14B0218BF4F
:100B2000084608D180EA010000F0004040F0FE4095
:100B300040F40000704740F0FE4040F44000704731
:100B40004FF0FF0C1CEAD0521EBF1CEAD15392EAB0
:100B50000C0F93EA0C0F69D0A2EB030280EA010CA0
:100B600049024FEA402037D04FF0805343EA111139
:100B700043EA10130CF000408B4238BF5B0042F197
:100B80007D024FF4000C8B4224BF5B1A40EA0C003C
:100B9000B3EB510F24BFA3EB510340EA5C00B3EB6E
:100BA000910F24BFA3EB910340EA9C00B3EBD10F5C
:100BB00024BFA3EBD10340EADC001B0118BF5FEAAE
:100BC0001C1CE0D1FD2A3FF650AF8B4240EBC250D7
:100BD00008BF20F0010070470CF0004C4CEA502098
:100BE0007F32C2BFD2F1FF0340EAC250704740F4E7
:100BF00000004FF00003013A37E792F0000F00F0D9
:100C0000004C02BF400010F4000F013AF9D040EA56
:100C10000C0093F0000F01F0004C02BF490011F4EA
:100C2000000F013BF9D041EA0C0195E70CEAD153E2
:100C300092EA0C0F08D142027FF47DAF93EA0C0FC9
:100C40007FF470AF084676E793EA0C0F04D14B02AD
:100C50003FF44CAF08466EE730F0004C18BF31F05F
:100C6000004CCAD130F000427FF45CAF31F0004359
:100C70007FF43CAF5FE700BF4FEA4002B2F1FE4FA6
:100C80000FD34FF09E03B3EB12620DD94FEA00234E
:100C900043F0004310F0004F23FA02F018BF404227
:100CA00070474FF00000704712F1610F01D142020E
:100CB00005D110F0004008BF6FF0004070474FF0C2
:100CC000000070470000000080B584B000AF78607D
:100CD0007868FFF72DFE03464FF08B411846FFF76B
:100CE0002FFF03461846FFF7C1FC09A3D3E90023F1
:100CF000FFF72EFA02460B4610461946FFF70EFD87
:100D00000346FB604FF0000318461037BD4680BD18
:100D10006666666666660A4080B582B000AF786037
:100D20007B68DBB21A464FF40071034801F0D6FF2E
:100D300000BF0837BD4680BD0008014080B582B0C5
:100D400000AF78607B68DBB21A460121034801F0EE
:100D5000C5FF00BF0837BD4680BD00BF000C014085
:100D600080B586B002AF0346FB71FB7923F00F0319
:100D7000FB73FB791B01BB73FB7B43F00C03DBB202
:100D80003B72FB7B43F00803DBB27B72BB7B43F01F
:100D90000C03DBB2BB72BB7B43F00803DBB2FB721C
:100DA00007F108026423009304234E21034802F054
:100DB00009F900BF1037BD4680BD00BFF400002018
:100DC00080B586B002AF0346FB71FB7923F00F03B9
:100DD000FB73FB791B01BB73FB7B43F00D03DBB2A1
:100DE0003B72FB7B43F00903DBB27B72BB7B43F0BE
:100DF0000D03DBB2BB72BB7B43F00903DBB2FB72BA
:100E000007F108026423009304234E21034802F0F3
:100E1000D9F800BF1037BD4680BD00BFF4000020E8
:100E200080B500AF3320FFF79BFF3220FFF798FF1C
:100E3000322000F0E3FE2820FFF792FF322000F07E
:100E4000DDFE0120FFF78CFF322000F0D7FE0620E8
:100E5000FFF786FF322000F0D1FE0C20FFF780FF65
:100E6000322000F0CBFE0220FFF77AFF322000F0A4
:100E7000C5FE8020FFF774FF00BF80BD80B582B043
:100E800000AF786006E07B685A1C7A601B781846D1
:100E9000FFF796FF7B681B78002BF4D100BF00BFE3
:100EA0000837BD4680BD80B500AF0120FFF758FF71
:100EB00000BF80BD80B584B000AF786039607B68CA
:100EC000012B08D17B68DAB23B68DBB21344DBB29A
:100ED0007F33FB7308E03B68DBB24033DBB25BB2CD
:100EE00063F07F035BB2FB73FB7B1846FFF738FFB1
:100EF00000BF1037BD4680BD80B58CB000AFF86034
:100F0000B9607A603B60FFF7CEFF2B4B1B78002B5C
:100F100035D100210120FFF7CDFF0A2000F06EFE41
:100F20002648FFF7ABFF0A2000F068FE07F110002B
:100F3000BB68FA68224903F0D7FF07F1100318468F
:100F4000FFF79CFF0A2000F059FE00210220FFF766
:100F5000B1FF0A2000F052FE1A48FFF78FFF0A2067
:100F600000F04CFE07F110003B687A68144903F06A
:100F7000BBFF07F110031846FFF780FF18E0FFF7EB
:100F800092FF01210120FFF795FF0A2000F036FEB5
:100F90000D48FFF773FF0A2000F030FE0021022009
:100FA000FFF788FF0A2000F029FE0848FFF766FFD8
:100FB00000BF3037BD4680BD7C000020645800086B
:100FC0006C580008745800087C58000888580008BD
:100FD00080B483B000AF786039600B4A3B6892FB05
:100FE000F3F20A4BDA62094BDB6A7A6802FB03F31D
:100FF000064A0749A1FB03135B09536300BF0C3783
:10100000BD4680BC704700BF00366E01002C014019
:101010001F85EB5180B500AF0021024803F084F931
:1010200000BF80BD4801002090B585B000AF00F042
:1010300083FD00F00DF900F0E1FA00F0C1FA00F0D4
:1010400065F900F0CDF900F0F9F900F097FAFFF733
:10105000E7FEFFF728FF724B1B7872491846FFF72F
:10106000B7FFFFF7D7FF0120FFF756FE4FF4FA60F6
:1010700000F0C4FD0020FFF761FE04226A496B48BE
:1010800000F0B8FE684B1B681846FFF71DFE0346CC
:101090001846FFF74DFC0346654A1360624B5B68D8
:1010A0001846FFF741FC03464FF08B411846FFF707
:1010B00047FD03461846FFF7D9FA57A3D3E90023A3
:1010C000FFF746F802460B4610461946FFF726FB87
:1010D0000346584A1360544B9B681846FFF724FC9C
:1010E00003464FF08B411846FFF72AFD034618468A
:1010F000FFF7BCFA48A3D3E90023FFF729F802461B
:101100000B4610461946FFF709FB03464A4A13608F
:10111000454BDB681846FFF707FC03464FF08B4151
:101120001846FFF70DFD03461846FFF79FFA3AA34E
:10113000D3E90023FFF70CF802460B461046194688
:10114000FFF7ECFA03463D4A13603C4B1B68394AF3
:10115000126811461846FFF73FFC03461A46384B03
:101160001A60354B1B68324A126811461846FFF761
:1011700033FC03461A46334B1A60304B1B68184643
:10118000FFF77AFD0346FB602C4B1C68F868FFF7FD
:10119000CFFB034619462046FFF714FB03462A49B6
:1011A0001846FFF719FC03461846FFF765FD03468E
:1011B000BB60214B1B681846FFF75EFD03467B6052
:1011C0001D4B1C687868FFF7B3FB034619462046A1
:1011D000FFF7F8FA03461C491846FFF7FDFB0346E4
:1011E0001846FFF749FD03463B60154B1B68174A3D
:1011F00013600B4B1B780B491846FFF7E9FEBB68E1
:10120000FA6839687868FFF777FE40F6B83000F082
:10121000F5FC28E7AFF300806666666666660A40FE
:1012200000000020A0860100800400208000002033
:101230009404002090040020980400209C040020C6
:10124000A4040020A80400200000C842A00400203C
:1012500080B594B000AF07F128032822002118467A
:1012600003F062FE07F1140300221A605A609A60CC
:10127000DA601A613B1D00221A605A609A60DA60D7
:101280000123BB624FF48033FB6200233B630123E5
:10129000BB6302237B644FF48033BB644FF4801341
:1012A000FB6407F12803184602F0E4FA0346002B1A
:1012B00001D000F059FA0F237B610223BB610023A8
:1012C000FB614FF4A0633B6200237B6207F11403D0
:1012D0000121184602F050FD0346002B01D000F01A
:1012E00043FA12237B604FF48043FB604FF480038A
:1012F0003B613B1D184602F0B9FE0346002B01D0AE
:1013000000F032FA00BF5037BD4680BD80B584B0D2
:1013100000AF3B1D00221A605A609A602E4B2F4A84
:101320001A602D4B4FF480729A602B4B00221A7377
:10133000294B00221A75284B4FF46022DA61264BA4
:1013400000225A60244B04221A61234800F07AFCE0
:101350000346002B01D000F007FA00237B60012335
:10136000BB600023FB603B1D19461B4800F03CFEA0
:101370000346002B01D000F0F7F901237B60022324
:10138000BB603B1D1946144800F02EFE0346002B9F
:1013900001D000F0E9F902237B600323BB603B1D11
:1013A00019460D4800F020FE0346002B01D000F046
:1013B000DBF903237B600423BB603B1D1946064811
:1013C00000F012FE0346002B01D000F0CDF900BF63
:1013D0001037BD4680BD00BF8000002000240140C2
:1013E00080B500AF124B134A1A60114B124A5A6073
:1013F0000F4B00229A600E4B0022DA600C4B4FF428
:1014000080421A610A4B00225A61094B00229A61FC
:10141000074B0022DA61064B00221A62044801F0F1
:101420008DFC0346002B01D000F09EF900BF80BD6B
:10143000F400002000540040A086010080B596B062
:1014400000AF07F1480300221A605A609A60DA6020
:1014500007F1400300221A605A6007F124030022BA
:101460001A605A609A60DA601A615A619A613B1D8B
:1014700020220021184603F057FD3E4B3E4A1A60D9
:101480003C4B01225A603B4B00229A60394B63224D
:10149000DA60384B00221A61364B00225A61354B14
:1014A00000229A61334802F097FE0346002B01D0D8
:1014B00000F05AF94FF48053BB6407F14803194612
:1014C0002C4803F095F80346002B01D000F04CF9AE
:1014D000284802F0D0FE0346002B01D000F044F96A
:1014E00000233B6400237B6407F140031946214835
:1014F00003F0EAFB0346002B01D000F035F960232E
:101500007B620023BB620023FB6200233B6300235A
:101510007B630023BB630023FB6307F124030022EA
:101520001946144802F0A2FF0346002B01D000F038
:101530001BF900237B600023BB600023FB600023BA
:101540003B6100237B614FF40053BB6100233B628E
:101550003B1D1946074803F015FC0346002B01D03C
:1015600000F002F9034800F0FBF900BF5837BD4610
:1015700080BD00BF48010020002C014080B500AFB5
:101580000D4B0E4A1A600C4B08225A600A4B02227D
:101590009A60094B00229A61074B0022DA61064BE0
:1015A00000221A62044802F065F80346002B01D0BD
:1015B00000F0DAF800BF80BD90010020005C004020
:1015C00080B582B000AF0C4B5B690B4A43F001035E
:1015D0005361094B5B6903F001037B607B68002268
:1015E00000210B2000F0D1FF0B2000F0EAFF00BF2C
:1015F0000837BD4680BD00BF0010024080B588B0EE
:1016000000AF07F1100300221A605A609A60DA6096
:10161000424B9B69414A43F0100393613F4B9B69E6
:1016200003F01003FB60FB683C4B9B693B4A43F0B3
:1016300020039361394B9B6903F02003BB60BB68B7
:10164000364B9B69354A43F004039361334B9B69E6
:1016500003F004037B607B68304B9B692F4A43F0A7
:10166000080393612D4B9B6903F008033B603B68C3
:1016700000224FF400512A4801F030FB00220121E2
:10168000284801F02BFB00224FF40071264801F09E
:1016900025FB4FF400533B6101237B610023BB61B9
:1016A0000223FB6107F1100319461D4801F092F96E
:1016B00010233B611D4B7B610123BB6107F11003CC
:1016C0001946194801F086F901233B6101237B612A
:1016D0000023BB610223FB6107F110031946114887
:1016E00001F078F94FF400733B6101237B61002323
:1016F000BB610223FB6107F1100319460A4801F0A0
:1017000069F9002200210A2000F03FFF0A2000F0C2
:1017100058FF00BF2037BD4680BD00BF001002400B
:1017200000100140000C01400008014000002110A1
:1017300080B483B000AF0346FB80FB88102B0AD136
:10174000084B1B78002B0CBF01230023DBB21A4689
:10175000044B1A7000E000BF00BF0C37BD4680BCD0
:10176000704700BF7C00002080B400AF72B600BF9D
:10177000FEE7000080B485B000AF154B9B69144AAA
:1017800043F001039361124B9B6903F00103BB60BB
:10179000BB680F4BDB690E4A43F08053D3610C4B9F
:1017A000DB6903F080537B607B680A4B5B68FB60FE
:1017B000FB6823F0E063FB60FB6843F00073FB60B1
:1017C000044AFB68536000BF1437BD4680BC7047B5
:1017D000001002400000014080B588B000AF786082
:1017E00007F1100300221A605A609A60DA607B6881
:1017F0001B68284A934249D1274B9B69264A43F4E8
:1018000000739361244B9B6903F40073FB60FB68D6
:10181000214B9B69204A43F0040393611E4B9B6953
:1018200003F00403BB60BB680F233B6103237B61B0
:1018300007F110031946194801F0CCF8184B194A62
:101840001A60174B00225A60154B00229A60144B05
:101850008022DA60124B4FF400721A61104B4FF481
:1018600000625A610E4B20229A610D4B0022DA6110
:101870000B4800F0C1FE0346002B01D0FFF774FFB8
:101880007B68074A1A62064A7B68536200BF2037AA
:10189000BD4680BD00240140001002400008014008
:1018A000B00000200800024080B588B000AF78602A
:1018B00007F1100300221A605A609A60DA607B68B0
:1018C0001B68154A934223D1144B9B69134A43F07A
:1018D00008039361114B9B6903F00803FB60FB68ED
:1018E000C0233B6112237B610323FB6107F11003DB
:1018F00019460B4801F06EF8084BDB69074A43F4C0
:101900000013D361054BDB6903F40013BB60BB68B4
:1019100000BF2037BD4680BD00540040001002408B
:10192000000C014080B485B000AF78607B681B6814
:10193000094A93420BD1094B9B69084A43F400635F
:101940009361064B9B6903F40063FB60FB6800BF77
:101950001437BD4680BC7047002C01400010024087
:1019600080B588B000AF786007F1100300221A60DC
:101970005A609A60DA607B681B68104A934218D1FB
:101980000F4B9B690E4A43F0040393610C4B9B6918
:1019900003F00403FB60FB684FF480733B61022398
:1019A0007B610223FB6107F110031946054801F032
:1019B00011F800BF2037BD4680BD00BF002C01409C
:1019C000001002400008014080B485B000AF78608C
:1019D0007B681B68094A93420BD1094BDB69084AB3
:1019E00043F40003D361064BDB6903F40003FB609F
:1019F000FB6800BF1437BD4680BC7047005C0040E8
:101A00000010024080B400AFFEE780B400AFFEE7F4
:101A100080B400AFFEE780B400AFFEE780B400AF53
:101A2000FEE780B400AF00BFBD4680BC704780B405
:101A300000AF00BFBD4680BC704780B400AF00BFA0
:101A4000BD4680BC704780B500AF00F0BBF800BF5A
:101A500080BD80B500AF102001F058F900BF80BDF7
:101A600080B500AF024800F081FE00BF80BD00BF1E
:101A7000B000002080B586B000AF7860144A154BE6
:101A8000D31A7B617B693B61134B1B68002B02D12E
:101A9000114B124A1A60104B1A687B6813443A695A
:101AA0009A4207D203F048FA03460C221A604FF01C
:101AB000FF3309E0084B1B68FB60074B1A687B6823
:101AC0001344054A1360FB6818461837BD4680BDAD
:101AD0000050002000040000AC040020000600209C
:101AE00080B400AF00BFBD4680BC7047FFF7F8FF71
:101AF0000B480C490C4A002302E0D458C45004336C
:101B0000C4188C42F9D3094A094C002301E0136040
:101B10000432A242FBD303F015FAFFF785FA7047AF
:101B20000000002060000020F8580008600000203D
:101B3000FC050020FEE7000080B500AF084B1B68E5
:101B4000074A43F010031360032000F013FD0F2039
:101B500000F008F8FFF70EFE0023184680BD00BF16
:101B60000020024080B582B000AF7860124B1A6846
:101B7000124B1B7819464FF47A73B3FBF1F3B2FBA7
:101B8000F3F3184600F02BFD0346002B01D0012390
:101B90000EE07B680F2B0AD8002279684FF0FF30E7
:101BA00000F0F3FC064A7B681360002300E0012389
:101BB00018460837BD4680BD040000200C000020F8
:101BC0000800002080B400AF054B1B781A46054B77
:101BD0001B681344034A136000BFBD4680BC7047B6
:101BE0000C000020B004002080B400AF024B1B6842
:101BF0001846BD4680BC7047B004002080B584B054
:101C000000AF7860FFF7F0FFB8607B68FB60FB68AF
:101C1000B3F1FF3F05D00A4B1B781A46FB6813440B
:101C2000FB6000BFFFF7E0FF0246BB68D31AFA680B
:101C30009A42F7D800BF00BF1037BD4680BD00BF35
:101C40000C00002080B586B000AF78600023FB75E3
:101C500000233B610023BB600023FB607B68002BFB
:101C600001D10123BEE07B689B68002B7B689B6AE7
:101C7000002B09D17B680022DA627B68002283F89E
:101C800024207868FFF7A8FD786800F0FFFA034683
:101C9000FB757B689B6A03F01003002B40F0998072
:101CA000FB7D002B40F095807B689B6A23F4885372
:101CB00023F0020343F002027B689A627B685A6851
:101CC0007B68DB691A437B681B7B5B001343BA6844
:101CD0001343BB607B689B68B3F5807F03D07B6850
:101CE0009B68012B02D14FF4807300E000233A6916
:101CF00013433B617B681B7D012B19D17B681B7BE8
:101D0000002B09D17B689B69013B5A033B69134354
:101D100043F400633B610BE07B689B6A43F0200265
:101D20007B689A627B68DB6A43F001027B68DA6257
:101D30007B681B685B6823F469417B681B683A69B0
:101D40000A435A607B681B689A68284B13407A687C
:101D50001268B9680B4393607B689B68B3F5807F1A
:101D600003D07B689B68012B04D17B681B69013B16
:101D70001B05FB607B681B68DB6A23F470017B68D2
:101D80001B68FA680A43DA627B681B689A68184B1A
:101D90001340BA689A420BD17B680022DA627B68F2
:101DA0009B6A23F0030343F001027B689A6218E008
:101DB0007B689B6A23F0120343F010027B689A62EF
:101DC0007B68DB6A43F001027B68DA620123FB7502
:101DD00007E07B689B6A43F010027B689A620123EC
:101DE000FB75FB7D18461837BD4680BDFDF7E1FF4A
:101DF000FE0E1FFF80B586B000AFF860B9607A6054
:101E00000023FB75FB681B68644A934204D0FB689F
:101E10001B68634A934206D1604B5B6803F47023EE
:101E2000002B40F0B380FB6893F82430012B01D1E4
:101E30000223AEE0FB68012283F82420F86800F05A
:101E4000CBF90346FB75FB7D002B40F09A80FB68C5
:101E50009B6A23F4706323F0010343F48072FB68F0
:101E60009A62FB681B684E4A934205D14B4B5B68F4
:101E700003F47023002B15D1FB689B6A23F48012B6
:101E8000FB689A62FB681B685B6803F48063002B45
:101E900026D0FB689B6A23F4405343F48052FB68CE
:101EA0009A621DE0FB689B6A43F48012FB689A62A9
:101EB000FB681B68394A934204D0FB681B68384AA8
:101EC00093420DD1354B5B6803F48063002B07D040
:101ED000FB689B6A23F4405343F48052FB689A6288
:101EE000FB689B6A03F48053002B06D0FB68DB6A17
:101EF00023F00602FB68DA6202E0FB680022DA6285
:101F0000FB68002283F82420FB681B6A254A9A623A
:101F1000FB681B6A244ADA62FB681B6A234A1A635D
:101F2000FB681B686FF002021A60FB681B689A6806
:101F3000FB681B6842F480729A60FB68186AFB6851
:101F40001B684C331946BA687B6800F0AFFBFB682E
:101F50001B689B6803F46023B3F5602F08D1FB680E
:101F60001B689A68FB681B6842F4A0029A600FE045
:101F7000FB681B689A68FB681B6842F480129A60D1
:101F800006E0FB68002283F8242001E00123FB75B2
:101F9000FB7D18461837BD4680BD00BF00240140B8
:101FA000002801400F2300088B230008A723000806
:101FB00080B483B000AF786000BF0C37BD4680BCF2
:101FC000704780B483B000AF786000BF0C37BD4667
:101FD00080BC704780B483B000AF786000BF0C371E
:101FE000BD4680BC7047000080B485B000AF78600B
:101FF00039600023FB730023BB607B6893F82430B7
:10200000012B01D10223DCE07B68012283F824202C
:102010003B685B68062B1CD87B681B68596B3B6868
:102020005A6813469B001344053B1F2202FA03F330
:10203000DB4319403B6818683B685A6813469B00AD
:102040001344053B00FA03F27B681B680A435A639A
:102050003CE03B685B680C2B1CD87B681B68196BE9
:102060003B685A6813469B001344233B1F2202FA25
:1020700003F3DB4319403B6818683B685A68134612
:102080009B001344233B00FA03F27B681B680A435E
:102090001A631BE07B681B68D96A3B685A68134661
:1020A0009B001344413B1F2202FA03F3DB43194018
:1020B0003B6818683B685A6813469B001344413BD1
:1020C00000FA03F27B681B680A43DA623B681B680C
:1020D000092B1CD97B681B68D9683B681A681346B2
:1020E0005B0013441E3B072202FA03F3DB43194053
:1020F0003B6898683B681A6813465B0013441E3BB4
:1021000000FA03F27B681B680A43DA6019E07B6817
:102110001B6819693B681A6813465B001344072261
:1021200002FA03F3DB4319403B6898683B681A687E
:1021300013465B00134400FA03F27B681B680A43F2
:102140001A613B681B68102B03D03B681B68112B7E
:1021500032D17B681B681D4A934225D17B681B687E
:102160009B6803F40003002B26D17B681B689A68E8
:102170007B681B6842F400029A603B681B68102B66
:102180001AD1134B1B68134AA2FB03239A0C134664
:102190009B0013445B00BB6002E0BB68013BBB607B
:1021A000BB68002BF9D107E07B689B6A43F02002F3
:1021B0007B689A620123FB737B68002283F82420EA
:1021C000FB7B18461437BD4680BC70470024014095
:1021D0000400002083DE1B4380B584B000AF78602C
:1021E0000023FB600023BB607B681B689B6803F0D7
:1021F0000103012B40D07B681B689A687B681B68D1
:1022000042F001029A601F4B1B681F4AA2FB032386
:102210009B0CBB6002E0BB68013BBB60BB68002B52
:10222000F9D1FFF7E1FCF8601FE0FFF7DDFC0246A3
:10223000FB68D31A022B18D97B681B689B6803F0D4
:102240000103012B11D07B689B6A43F010027B686D
:102250009A627B68DB6A43F001027B68DA627B6822
:10226000002283F82420012307E07B681B689B6819
:1022700003F00103012BD8D1002318461037BD46C7
:1022800080BD00BF0400002083DE1B4380B584B006
:1022900000AF78600023FB607B681B689B6803F0DD
:1022A0000103012B2ED17B681B689A687B681B6831
:1022B00022F001029A60FFF797FCF8601BE0FFF73D
:1022C00093FC0246FB68D31A022B14D97B681B6867
:1022D0009B6803F00103012B0DD17B689B6A43F0DF
:1022E00010027B689A627B68DB6A43F001027B68BC
:1022F000DA62012307E07B681B689B6803F0010337
:10230000012BDCD0002318461037BD4680BD80B5B8
:1023100084B000AF78607B685B6AFB60FB689B6A97
:1023200003F05003002B27D1FB689B6A43F4007233
:10233000FB689A62FB681B689B6803F46023B3F533
:10234000602F15D1FB681B7B002B11D1FB689B6AAA
:1023500023F48072FB689A62FB689B6A03F48053E3
:10236000002B05D1FB689B6A43F00102FB689A626F
:10237000F868FFF71DFE04E0FB681B6A1B6B7868BA
:10238000984700BF1037BD4680BD80B584B000AF10
:1023900078607B685B6AFB60F868FFF712FE00BF3D
:1023A0001037BD4680BD80B584B000AF78607B68D3
:1023B0005B6AFB60FB689B6A43F04002FB689A62C1
:1023C000FB68DB6A43F00402FB68DA62F868FFF737
:1023D00001FE00BF1037BD4680BD000080B485B04F
:1023E00000AF78607B6803F00703FB600C4BDB6891
:1023F000BB60BA684FF6FF031340BB60FB681A026C
:10240000BB68134343F0BF6343F40033BB60044A2B
:10241000BB68D36000BF1437BD4680BC704700BFA7
:1024200000ED00E080B400AF044BDB681B0A03F052
:1024300007031846BD4680BC704700BF00ED00E0B2
:1024400080B483B000AF0346FB7197F90730002BCF
:102450000BDBFB7903F01F02064997F907305B0994
:10246000012000FA02F241F8232000BF0C37BD46DC
:1024700080BC704700E100E080B483B000AF034649
:102480003960FB7197F90730002B0ADB3B68DAB241
:102490000C4997F907301201D2B20B4483F800239C
:1024A0000AE03B68DAB20849FB7903F00F03043B0A
:1024B0001201D2B20B441A7600BF0C37BD4680BC65
:1024C000704700BF00E100E000ED00E080B489B09B
:1024D00000AFF860B9607A60FB6803F00703FB6146
:1024E000FB69C3F10703042B28BF0423BB61FB690D
:1024F0000433062B02D9FB69033B00E000237B6118
:102500004FF0FF32BB6902FA03F3DA43BB681A40AB
:102510007B699A404FF0FF317B6901FA03F3D9439D
:102520007B680B40134318462437BD4680BC704778
:1025300080B582B000AF78607B68013BB3F1807FEB
:1025400001D301230FE00A4A7B68013B53600F214E
:102550004FF0FF30FFF790FF054B00229A60044BCD
:1025600007221A60002318460837BD4680BD00BF09
:1025700010E000E080B582B000AF78607868FFF7C7
:102580002DFF00BF0837BD4680BD80B586B000AFC7
:102590000346B9607A60FB7300237B61FFF742FF5B
:1025A00078617A68B9687869FFF790FF024697F911
:1025B0000F3011461846FFF75FFF00BF1837BD46C2
:1025C00080BD80B582B000AF0346FB7197F907303C
:1025D0001846FFF735FF00BF0837BD4680BD80B500
:1025E00082B000AF78607868FFF7A2FF0346184614
:1025F0000837BD4680BD000080B485B000AF78606C
:102600000023FB607B68002B01D1012343E07B6842
:102610001B681A46224B1344224AA2FB03231B09C0
:102620009A007B681A647B681F4ADA637B6802221F
:1026300083F821207B681B681B68FB60FB6823F420
:102640007F5323F03003FB607B685A687B689B688C
:102650001A437B68DB681A437B681B691A437B68F3
:102660005B691A437B689B691A437B68DB69134388
:10267000FA681343FB607B681B68FA681A607B6822
:1026800000229A637B68012283F821207B68002264
:1026900083F82020002318461437BD4680BC7047BD
:1026A000F8FFFDBFCDCCCCCC0000024080B586B099
:1026B00000AFF860B9607A603B600023FB75FB688F
:1026C00093F82030012B01D102234BE0FB6801225B
:1026D00083F82020FB6893F82130DBB2012B3AD13C
:1026E000FB68022283F82120FB6800229A63FB68C2
:1026F0001B681A68FB681B6822F001021A603B68BD
:102700007A68B968F86800F037F9FB68DB6A002B73
:1027100008D0FB681B681A68FB681B6842F00E0251
:102720001A600FE0FB681B681A68FB681B6822F0E0
:1027300004021A60FB681B681A68FB681B6842F099
:102740000A021A60FB681B681A68FB681B6842F083
:1027500001021A6005E0FB68002283F820200223B2
:10276000FB75FB7D18461837BD4680BD80B584B02B
:1027700000AF78607B68DB6B1B68FB607B681B6865
:102780001B68BB607B681B6C04229A40FB6813408B
:10279000002B4FD0BB6803F00403002B4AD07B68AA
:1027A0001B681B6803F02003002B07D17B681B68A4
:1027B0001A687B681B6822F004021A607B681B6839
:1027C000664A934229D07B681B68654A934222D0AF
:1027D0007B681B68634A93421AD07B681B68624A15
:1027E000934212D07B681B68604A93420AD07B6890
:1027F0001B685F4A934202D14FF480030EE04FF012
:1028000080630BE04FF4802308E04FF4804305E041
:102810004FF4806302E0402300E00423554A5360F4
:102820007B68DB6A002B00F094807B68DB6A786849
:1028300098478EE07B681B6C02229A40FB6813402D
:10284000002B56D0BB6803F00203002B51D07B68ED
:102850001B681B6803F02003002B0BD17B681B68EF
:102860001A687B681B6822F00A021A607B680122E2
:1028700083F821207B681B68384A934229D07B6803
:102880001B68374A934222D07B681B68354A9342C3
:102890001AD07B681B68344A934212D07B681B684D
:1028A000324A93420AD07B681B68314A934202D174
:1028B0004FF400130EE04FF000730BE04FF40033C1
:1028C00008E04FF4005305E04FF4007302E02023CA
:1028D00000E00223274A53607B68002283F820200F
:1028E0007B689B6A002B34D07B689B6A786898472A
:1028F0002FE07B681B6C08229A40FB681340002B7A
:1029000028D0BB6803F00803002B23D07B681B682A
:102910001A687B681B6822F00E021A607B681A6CCA
:102920007B68DB6B012101FA02F25A607B680122AD
:102930009A637B68012283F821207B68002283F858
:1029400020207B681B6B002B04D07B681B6B786896
:10295000984700BF00BF1037BD4680BD0800024049
:102960001C00024030000240440002405800024077
:102970006C0002400000024080B485B000AFF860F7
:10298000B9607A603B60FB681A6CFB68DB6B012105
:1029900001FA02F25A60FB681B683A685A60FB68E9
:1029A0005B68102B08D1FB681B687A689A60FB682B
:1029B0001B68BA68DA6007E0FB681B68BA689A604F
:1029C000FB681B687A68DA6000BF1437BD4680BCBC
:1029D0007047000080B48BB000AF7860396000238E
:1029E0007B6200233B6269E101227B6A02FA03F306
:1029F000FB613B681B68FA691340BB61BA69FB69FC
:102A00009A4240F058813B685B689A4A93425ED094
:102A1000984A934275D8984A934258D0964A93421E
:102A20006FD8964A934252D0944A934269D8944AB6
:102A300093424CD0924A934263D8924A934246D0F2
:102A4000904A93425DD8122B2AD8122B59D801A252
:102A500052F823F0CF2A0008A92A0008BB2A000850
:102A6000FD2A0008032B0008032B0008032B000895
:102A7000032B0008032B0008032B0008032B00087E
:102A8000032B0008032B0008032B0008032B00086E
:102A9000032B0008032B0008B12A0008C52A0008F0
:102AA000794A934213D02CE03B68DB683B6229E013
:102AB0003B68DB6804333B6224E03B68DB68083337
:102AC0003B621FE03B68DB680C333B621AE03B680B
:102AD0009B68002B02D104233B6213E03B689B6898
:102AE000012B05D108233B627B68FA691A6109E072
:102AF00008233B627B68FA695A6103E000233B626A
:102B000000E000BFBB69FF2B01D87B6801E07B6858
:102B100004337B61BB69FF2B02D87B6A9B0002E018
:102B20007B6A083B9B003B617B691A680F213B690C
:102B300001FA03F3DB431A40396A3B6901FA03F3F4
:102B40001A437B691A603B685B6803F08053002B73
:102B500000F0B1804D4B9B694C4A43F001039361F7
:102B60004A4B9B6903F00103BB60BB68484A7B6A20
:102B70009B08023352F82330FB607B6A03F00303A7
:102B80009B000F2202FA03F3DB43FA681340FB6059
:102B90007B68404A934213D07B683F4A93420DD0F2
:102BA0007B683E4A934207D07B683D4A934201D1FD
:102BB000032306E0042304E0022302E0012300E0F3
:102BC00000237A6A02F0030292009340FA681343EA
:102BD000FB602F497B6A9B080233FA6841F8232087
:102BE0003B685B6803F48013002B06D02D4B9A687A
:102BF0002C49BB6913438B6006E02A4B9A68BB697A
:102C0000DB43284913408B603B685B6803F4001387
:102C1000002B06D0234BDA682249BB691343CB60F3
:102C200006E0204BDA68BB69DB431E491340CB60EA
:102C30003B685B6803F40033002B06D0194B5A68DD
:102C40001849BB6913434B6006E0164B5A68BB69D1
:102C5000DB43144913404B603B685B6803F48033EB
:102C6000002B21D00F4B1A680E49BB6913430B6030
:102C700021E000BF000032100000311000002210DF
:102C8000000021100000121000001110001002407E
:102C90000000014000080140000C0140001001400C
:102CA00000140140000401400B4B1A68BB69DB4370
:102CB000094913400B607B6A01337B623B681A68E9
:102CC0007B6A22FA03F3002B7FF48EAE00BF00BFB5
:102CD0002C37BD4680BC70470004014080B483B0EF
:102CE00000AF78600B467B8013467B707B78002BAF
:102CF00003D07A887B681A6103E07B881A047B68BA
:102D00001A6100BF0C37BD4680BC704780B582B0E9
:102D100000AF0346FB80084B5A69FB881340002B29
:102D200006D0054AFB885361FB881846FEF700FD74
:102D300000BF0837BD4680BD0004014080B584B0A7
:102D400000AF78607B68002B01D101232BE17B6809
:102D500093F83D30DBB2002B06D17B68002283F86C
:102D60003C207868FEF7A0FD7B68242283F83D2094
:102D70007B681B681A687B681B6822F001021A6076
:102D80007B681B681A687B681B6842F400421A6003
:102D90007B681B681A687B681B6822F400421A6013
:102DA00001F032F9F8607B685B68814A934207D88A
:102DB000FB68804A934294BF01230023DBB206E004
:102DC000FB687D4A934294BF01230023DBB2002BB2
:102DD00001D00123E7E0FB68784AA2FB03239B0CA8
:102DE000BB607B681B685B6823F03F017B681B68E6
:102DF000BA680A435A607B681B681B6A23F03F016C
:102E00007B685B686A4A934202D8BB68013309E079
:102E1000BB684FF4967202FB03F3694AA2FB0323DB
:102E20009B0901337A6812680B4313627B681B6845
:102E3000DB6923F44F4222F0FF027B685B685C4948
:102E40008B4219D8FB68591E7B685B685B00B1FB3D
:102E5000F3F3591C40F6FC730B40002B0AD0FB68BF
:102E6000591E7B685B685B00B1FBF3F30133C3F36E
:102E70000B0351E004234FE07B689B68002B11D1CA
:102E8000FB68581E7B6859680B465B000B44B0FB1F
:102E9000F3F30133C3F30B03002B0CBF0123002317
:102EA000DBB212E0FB68581E7B6859680B469B003A
:102EB0000B4499000B44B0FBF3F30133C3F30B0352
:102EC000002B0CBF01230023DBB2002B01D0012318
:102ED00022E07B689B68002B0ED1FB68581E7B6844
:102EE00059680B465B000B44B0FBF3F30133C3F3AB
:102EF0000B0343F400430FE0FB68581E7B685968DE
:102F00000B469B000B4499000B44B0FBF3F30133D9
:102F1000C3F30B0343F44043796809681343CB615F
:102F20007B681B681B6823F0C0017B68DA697B68DB
:102F30001B6A1A437B681B680A431A607B681B681C
:102F40009B6823F4034323F0FF037A6811697A68CE
:102F5000D26811437A6812680B4393607B681B68E0
:102F6000DB6823F0FF017B685A697B689B691A4321
:102F70007B681B680A43DA607B681B681A687B6899
:102F80001B6842F001021A607B6800221A647B68A9
:102F9000202283F83D207B6800221A637B68002290
:102FA00083F83E20002318461037BD4680BD00BF81
:102FB000A08601007F841E00FF083D0083DE1B43C6
:102FC000D34D621080B588B002AFF8607A601A46BF
:102FD0000B467B8113463B81FEF706FE7861FB685A
:102FE00093F83D30DBB2202B40F0E0807B6900930A
:102FF000192301227049F86800F064F90346002B98
:1030000001D00223D3E0FB6893F83C30012B01D1BF
:103010000223CCE0FB68012283F83C20FB681B689C
:103020001B6803F00103012B07D0FB681B681A68BB
:10303000FB681B6842F001021A60FB681B681A6893
:10304000FB681B6822F400621A60FB68212283F887
:103050003D20FB68102283F83E20FB6800221A64A2
:10306000FB687A685A62FB683A895A85FB685B8D0F
:103070009AB2FB681A85FB68504ADA6279897B69E3
:103080003A6AF86800F09CF80346002B01D001234F
:103090008DE000233B61FB681B685B693B61FB685B
:1030A0001B689B693B613B6966E07A69396AF8682D
:1030B00000F022FA0346002B0DD0FB681B6C042B9A
:1030C00007D1FB681B681A68FB681B6842F4007232
:1030D0001A6001236BE0FB685B6A1A78FB681B6867
:1030E0001A61FB685B6A5A1CFB685A62FB685B8D5D
:1030F0009BB2013B9AB2FB685A85FB681B8D013B72
:103100009AB2FB681A85FB681B685B6903F00403CD
:10311000042B1BD1FB681B8D002B17D0FB685B6A4F
:103120001A78FB681B681A61FB685B6A5A1CFB68AB
:103130005A62FB685B8D9BB2013B9AB2FB685A8571
:10314000FB681B8D013B9AB2FB681A857A69396A64
:10315000F86800F019FA0346002B0DD0FB681B6CD1
:10316000042B07D1FB681B681A68FB681B6842F4D4
:1031700000721A6001231AE0FB681B8D002B94D1AA
:10318000FB681B681A68FB681B6842F400721A60CF
:10319000FB68202283F83D20FB68002283F83E2054
:1031A000FB68002283F83C20002300E0022318463D
:1031B0001837BD4680BD00BF020010000000FFFFB1
:1031C00080B588B002AFF8607A603B600B467B81C7
:1031D000FB68DB6A7B617B69082B06D07B69012B6E
:1031E00003D07B6913F5803F08D1FB681B681A6820
:1031F000FB681B6842F480721A600BE0FB681B6B73
:10320000122B07D1FB681B681A68FB681B6842F425
:1032100080721A603B6800937B6800224FF00111B6
:10322000F86800F04FF80346002B0DD0FB681B68D0
:103230001B6803F48073B3F5807F03D1FB684FF400
:1032400000721A64032335E0FB681B69B3F5804FF5
:1032500008D17B89DBB21A46FB681B6802F0FE02CC
:103260001A611BE07B89DB11DBB203F00603DBB2E2
:1032700063F00F03DAB2FB681B681A613B687A6877
:103280000E49F86800F098F80346002B01D001239E
:1032900010E07B89DAB2FB681B681A613B687A68C8
:1032A0000749F86800F088F80346002B01D0012395
:1032B00000E0002318461837BD4680BD0800010015
:1032C0000200010080B584B000AFF860B9603B60D7
:1032D0001346FB7148E03B68B3F1FF3F44D0FEF773
:1032E00083FC0246BB69D31A3A689A4202D33B6810
:1032F000002B39D1BB681B0CDBB2012B0DD1FB6855
:103300001B685B69DA43BB6813409BB2002B0CBFA0
:1033100001230023DBB21A460CE0FB681B689B69A3
:10332000DA43BB6813409BB2002B0CBF0123002380
:10333000DBB21A46FB799A4216D1FB6800221A6367
:10334000FB68202283F83D20FB68002283F83E20A2
:10335000FB681B6C43F02002FB681A64FB680022C8
:1033600083F83C20012323E0BB681B0CDBB2012B5C
:103370000DD1FB681B685B69DA43BB6813409BB2E5
:10338000002B0CBF01230023DBB21A460CE0FB68C4
:103390001B689B69DA43BB6813409BB2002B0CBFD0
:1033A00001230023DBB21A46FB799A4293D0002313
:1033B00018461037BD4680BD80B584B000AFF860B8
:1033C000B9607A603B6071E0FB681B685B6903F47D
:1033D0008063B3F5806F23D1FB681B681A68FB68B4
:1033E0001B6842F400721A60FB681B686FF480620D
:1033F0005A61FB6800221A63FB68202283F83D2093
:10340000FB68002283F83E20FB681B6C43F004023B
:10341000FB681A64FB68002283F83C20012367E004
:103420007B68B3F1FF3F41D0FEF7DEFB02463B680D
:10343000D31A7A689A4202D37B68002B36D1BB68D4
:103440001B0CDBB2012B0CD1FB681B685B69DA43F8
:10345000BB6813409BB2002B14BF01230023DBB2D7
:103460000BE0FB681B689B69DA43BB6813409BB2A7
:10347000002B14BF01230023DBB2002B16D0FB6806
:1034800000221A63FB68202283F83D20FB6800229B
:1034900083F83E20FB681B6C43F02002FB681A6433
:1034A000FB68002283F83C20012321E0BB681B0C51
:1034B000DBB2012B0CD1FB681B685B69DA43BB688C
:1034C00013409BB2002B14BF01230023DBB20BE09F
:1034D000FB681B689B69DA43BB6813409BB2002BF7
:1034E00014BF01230023DBB2002B7FF46DAF002358
:1034F00018461037BD4680BD80B584B000AFF86077
:10350000B9607A6034E0F86800F086F80346002B72
:1035100001D0012334E0BB68B3F1FF3F28D0FEF7B0
:1035200063FB02467B68D31ABA689A4202D3BB682F
:10353000002B1DD1FB681B685B6903F08003802BA7
:1035400016D0FB6800221A63FB68202283F83D2016
:10355000FB68002283F83E20FB681B6C43F02002CE
:10356000FB681A64FB68002283F83C20012307E013
:10357000FB681B685B6903F08003802BC3D10023C9
:1035800018461037BD4680BD80B584B000AFF860E6
:10359000B9607A6034E0F86800F03EF80346002B2A
:1035A00001D0012334E0BB68B3F1FF3F28D0FEF720
:1035B0001BFB02467B68D31ABA689A4202D3BB68E7
:1035C000002B1DD1FB681B685B6903F00403042B0F
:1035D00016D0FB6800221A63FB68202283F83D2086
:1035E000FB68002283F83E20FB681B6C43F020023E
:1035F000FB681A64FB68002283F83C20012307E083
:10360000FB681B685B6903F00403042BC3D1002330
:1036100018461037BD4680BD80B483B000AF7860D7
:103620007B681B685B6903F48063B3F5806F1BD113
:103630007B681B686FF480625A617B6800221A63A2
:103640007B68202283F83D207B68002283F83E209F
:103650007B681B6C43F004027B681A647B68002261
:1036600083F83C20012300E0002318460C37BD46B8
:1036700080BC7047F0B58BB006AF78607B68002BDC
:1036800001D10123F1E07B6893F8A932DBB2002B72
:1036900006D17B68002283F8A8227868FEF794F9A7
:1036A0007B68032283F8A9227B681B68184601F017
:1036B000CAFB7B681B683B607E686D4606F11004A0
:1036C0000FCC0FC523682B60331D0ECB386801F07B
:1036D000AAFB0346002B05D07B68022283F8A922AF
:1036E0000123C2E07B681B680021184601F0C5FB7E
:1036F0000023FB7340E0FB7B79685A1C13469B0058
:103700001344DB000B44013301221A70FB7B796800
:103710005A1C13469B001344DB000B44FA7B1A70BF
:10372000FB7B79685A1C13469B001344DB000B4457
:10373000033300221A70FA7B796813469B00134406
:10374000DB000B44383300221A60FA7B7968134699
:103750009B001344DB000B443C3300221A60FA7BCD
:10376000796813469B001344DB000B44403300226E
:103770001A60FB7B0133FB73FA7B7B685B689A42C0
:10378000B9D30023FB7344E0FA7B796813469B00AE
:103790001344DB000B4403F2691300221A70FA7B16
:1037A000796813469B001344DB000B4403F5B473A4
:1037B000FA7B1A70FA7B796813469B001344DB008E
:1037C0000B4403F26B1300221A70FA7B79681346DC
:1037D0009B001344DB000B4403F5BC7300221A600A
:1037E000FA7B796813469B001344DB000B4403F516
:1037F000BE7300221A60FA7B796813469B0013445B
:10380000DB000B4403F5C07300221A60FB7B01331D
:10381000FB73FA7B7B685B689A42B5D37B681B6855
:103820003B607E686D4606F110040FCC0FC523681F
:103830002B60331D0ECB386801F02BFB0346002BA9
:1038400005D07B68022283F8A92201230DE07B6862
:10385000002283F824207B68012283F8A9227B6858
:103860001B68184601F035FB002318461437BD4687
:10387000F0BD000080B586B000AF78607B68002B9B
:1038800001D1012372E27B681B6803F00103002B66
:1038900000F08780924B5B6803F00C03042B0CD084
:1038A0008F4B5B6803F00C03082B12D18C4B5B68C9
:1038B00003F48033B3F5803F0BD1894B1B6803F4CD
:1038C0000033002B6CD07B685B68002B68D1012330
:1038D0004CE27B685B68B3F5803F06D1804B1B6888
:1038E0007F4A43F4803313602EE07B685B68002BD3
:1038F0000CD17B4B1B687A4A23F480331360784BDE
:103900001B68774A23F4802313601DE07B685B68A3
:10391000B3F5A02F0CD1724B1B68714A43F480237E
:1039200013606F4B1B686E4A43F4803313600BE0E7
:103930006B4B1B686A4A23F480331360684B1B6827
:10394000674A23F4802313607B685B68002B13D0E5
:10395000FEF74AF9386108E0FEF746F902463B698E
:10396000D31A642B01D9032300E25D4B1B6803F4D7
:103970000033002BF0D014E0FEF736F9386108E090
:10398000FEF732F902463B69D31A642B01D90323AF
:10399000ECE1534B1B6803F40033002BF0D100E043
:1039A00000BF7B681B6803F00203002B63D04C4B05
:1039B0005B6803F00C03002B0BD0494B5B6803F0F2
:1039C0000C03082B1CD1464B5B6803F48033002B9F
:1039D00016D1434B1B6803F00203002B05D07B6814
:1039E0001B69012B01D00123C0E13D4B1B6823F073
:1039F000F8027B685B69DB00394913430B603AE0EE
:103A00007B681B69002B20D0364B01221A60FEF721
:103A1000EBF8386108E0FEF7E7F802463B69D31A95
:103A2000022B01D90323A1E12D4B1B6803F00203F4
:103A3000002BF0D02A4B1B6823F0F8027B685B69EF
:103A4000DB00274913430B6015E0264B00221A6068
:103A5000FEF7CAF8386108E0FEF7C6F802463B698F
:103A6000D31A022B01D9032380E11D4B1B6803F0FD
:103A70000203002BF0D17B681B6803F00803002BC6
:103A80003AD07B689B69002B19D0174B01221A6032
:103A9000FEF7AAF8386108E0FEF7A6F802463B698F
:103AA000D31A022B01D9032360E10D4B5B6A03F0AB
:103AB0000203002BF0D0012000F0BAFA1CE00A4B00
:103AC00000221A60FEF790F838610FE0FEF78CF8DC
:103AD00002463B69D31A022B08D9032346E100BFF3
:103AE000001002400000424280044242924B5B6A56
:103AF00003F00203002BE9D17B681B6803F0040389
:103B0000002B00F0A6800023FB758B4BDB6903F0D4
:103B10008053002B0DD1884BDB69874A43F08053DB
:103B2000D361854BDB6903F08053BB60BB68012325
:103B3000FB75824B1B6803F48073002B18D17F4BFD
:103B40001B687E4A43F480731360FEF74DF83861BA
:103B500008E0FEF749F802463B69D31A642B01D905
:103B6000032303E1754B1B6803F48073002BF0D033
:103B70007B68DB68012B06D16F4B1B6A6E4A43F0F2
:103B8000010313622DE07B68DB68002B0CD16A4BCC
:103B90001B6A694A23F001031362674B1B6A664A7A
:103BA00023F0040313621CE07B68DB68052B0CD157
:103BB000614B1B6A604A43F0040313625E4B1B6A4D
:103BC0005D4A43F0010313620BE05B4B1B6A5A4AE8
:103BD00023F001031362584B1B6A574A23F0040376
:103BE00013627B68DB68002B15D0FDF7FDFF3861A1
:103BF0000AE0FDF7F9FF02463B69D31A41F2883229
:103C0000934201D90323B1E04B4B1B6A03F002033B
:103C1000002BEED014E0FDF7E7FF38610AE0FDF776
:103C2000E3FF02463B69D31A41F28832934201D93D
:103C300003239BE0404B1B6A03F00203002BEED1F1
:103C4000FB7D012B05D13C4BDB693B4A23F08053C4
:103C5000D3617B68DB69002B00F08780364B5B68A3
:103C600003F00C03082B61D07B68DB69022B46D183
:103C7000334B00221A60FDF7B7FF386108E0FDF70B
:103C8000B3FF02463B69D31A022B01D903236DE02F
:103C9000294B1B6803F00073002BF0D17B681B6A73
:103CA000B3F5803F08D1244B5B6823F400327B6876
:103CB0009B68214913434B601F4B5B6823F47412CC
:103CC0007B68196A7B685B6A0B431B4913434B6033
:103CD0001B4B01221A60FDF787FF386108E0FDF7F2
:103CE00083FF02463B69D31A022B01D903233DE02F
:103CF000114B1B6803F00073002BF0D035E0104B24
:103D000000221A60FDF770FF386108E0FDF76CFFD4
:103D100002463B69D31A022B01D9032326E0064B46
:103D20001B6803F00073002BF0D11EE07B68DB6999
:103D3000012B07D1012319E0001002400070004060
:103D4000600042420B4B5B68FB60FB6803F480320F
:103D50007B681B6A9A4206D1FB6803F470127B6889
:103D60005B6A9A4201D0012300E00023184618370D
:103D7000BD4680BD0010024080B584B000AF7860C1
:103D800039607B68002B01D10123D0E06A4B1B68AE
:103D900003F007033A689A4210D9674B1B6823F077
:103DA000070265493B6813430B60634B1B6803F0D4
:103DB00007033A689A4201D00123B8E07B681B6888
:103DC00003F00203002B20D07B681B6803F0040380
:103DD000002B05D0594B5B68584A43F4E0635360AD
:103DE0007B681B6803F00803002B05D0534B5B680E
:103DF000524A43F460535360504B5B6823F0F00227
:103E00007B689B684D4913434B607B681B6803F0DC
:103E10000103002B40D07B685B68012B07D1474B27
:103E20001B6803F40033002B15D101237FE07B686E
:103E30005B68022B07D1414B1B6803F00073002B1A
:103E400009D1012373E03D4B1B6803F00203002BF3
:103E500001D101236BE0394B5B6823F003027B68DF
:103E60005B68364913434B60FDF7BEFEF8600AE01D
:103E7000FDF7BAFE0246FB68D31A41F2883293423C
:103E800001D9032353E02D4B5B6803F00C027B68E0
:103E90005B689B009A42EBD1274B1B6803F007033A
:103EA0003A689A4210D2244B1B6823F00702224939
:103EB0003B6813430B60204B1B6803F007033A6811
:103EC0009A4201D0012332E07B681B6803F00403AF
:103ED000002B08D0194B5B6823F4E0627B68DB6839
:103EE000164913434B607B681B6803F00803002BE3
:103EF00009D0124B5B6823F460527B681B69DB00BE
:103F00000E4913434B6000F021F802460B4B5B68EF
:103F10001B0903F00F030A49CB5C22FA03F3094A99
:103F20001360094B1B681846FDF71CFE002318465A
:103F30001037BD4680BD00BF002002400010024087
:103F400090580008040000200800002080B487B0CA
:103F500000AF0023FB600023BB6000237B610023D4
:103F60007B6000233B611E4B5B68FB60FB6803F0DA
:103F70000C03042B02D0082B03D027E0194B3B6124
:103F800027E0FB689B0C03F00F03174AD35C7B60B0
:103F9000FB6803F48033002B10D0114B5B685B0C83
:103FA00003F00103114AD35CBB607B680D4A03FB3D
:103FB00002F2BB68B2FBF3F37B6104E07B680C4A5E
:103FC00002FB03F37B617B693B6102E0054B3B61D4
:103FD00000BF3B6918461C37BD4680BC704700BF18
:103FE0000010024000127A00A8580008B8580008D3
:103FF00000093D0080B400AF024B1B681846BD4667
:1040000080BC70470400002080B500AFFFF7F2FFCE
:104010000246054B5B681B0A03F007030349CB5CB0
:1040200022FA03F3184680BD00100240A058000891
:1040300080B485B000AF78600A4B1B680A4AA2FBC7
:1040400003235B0A7A6802FB03F3FB6000BFFB6893
:104050005A1EFA60002BF9D100BF00BF1437BD46CD
:1040600080BC704704000020D34D621080B586B03C
:1040700000AF786000233B610023FB607B681B6816
:1040800003F00103002B7DD00023FB754F4BDB6950
:1040900003F08053002B0DD14C4BDB694B4A43F0AE
:1040A0008053D361494BDB6903F08053BB60BB682D
:1040B0000123FB75464B1B6803F48073002B18D15A
:1040C000434B1B68424A43F480731360FDF78CFD39
:1040D000386108E0FDF788FD02463B69D31A642B7E
:1040E00001D903236DE03A4B1B6803F48073002B66
:1040F000F0D0364B1B6A03F44073FB60FB68002B67
:104100002ED07B685B6803F44073FA689A4227D02C
:104110002E4B1B6A23F44073FB602E4B01221A6066
:104120002C4B00221A60294AFB681362FB6803F0DB
:104130000103002B14D0FDF757FD38610AE0FDF7AD
:1041400053FD02463B69D31A41F28832934201D9AA
:10415000032336E01D4B1B6A03F00203002BEED055
:104160001A4B1B6A23F440727B685B681749134340
:104170000B62FB7D012B05D1144BDB69134A23F045
:104180008053D3617B681B6803F00203002B08D0C7
:104190000E4B5B6823F440427B689B680B491343DA
:1041A0004B607B681B6803F01003002B08D0074BA3
:1041B0005B6823F480027B68DB68044913434B602F
:1041C000002318461837BD4680BD00BF00100240CE
:1041D000007000404004424280B582B000AF786079
:1041E0007B68002B01D1012341E07B6893F83D30CF
:1041F000DBB2002B06D17B68002283F83C20786874
:10420000FDF790FB7B68022283F83D207B681A68EB
:104210007B6804331946104600F0B2FA7B6801222D
:1042200083F846207B68012283F83E207B680122C8
:1042300083F83F207B68012283F840207B680122BD
:1042400083F841207B68012283F842207B680122A9
:1042500083F843207B68012283F844207B68012295
:1042600083F845207B68012283F83D20002318460F
:104270000837BD4680BD80B582B000AF78607B68EE
:10428000002B01D1012341E07B6893F83D30DBB284
:10429000002B06D17B68002283F83C20786800F070
:1042A00039F87B68022283F83D207B681A687B68B6
:1042B00004331946104600F063FA7B68012283F844
:1042C00046207B68012283F83E207B68012283F828
:1042D0003F207B68012283F840207B68012283F81D
:1042E00041207B68012283F842207B68012283F809
:1042F00043207B68012283F844207B68012283F8F5
:1043000045207B68012283F83D20002318460837AA
:10431000BD4680BD80B483B000AF786000BF0C376D
:10432000BD4680BC7047000080B584B000AF7860A7
:1043300039603B68002B09D17B6893F83E30DBB2D3
:10434000012B14BF01230023DBB222E03B68042BC6
:1043500009D17B6893F83F30DBB2012B14BF0123F6
:104360000023DBB215E03B68082B09D17B6893F88A
:104370004030DBB2012B14BF01230023DBB208E085
:104380007B6893F84130DBB2012B14BF012300237B
:10439000DBB2002B01D001235EE03B68002B04D18F
:1043A0007B68022283F83E2013E03B68042B04D193
:1043B0007B68022283F83F200BE03B68082B04D186
:1043C0007B68022283F8402003E07B68022283F8A6
:1043D00041207B681B6801223968184600F050FCB8
:1043E0007B681B681E4A934207D17B681B685A6C26
:1043F0007B681B6842F400425A647B681B68184A59
:1044000093420ED07B681B68B3F1804F09D07B6864
:104410001B68144A934204D07B681B68124A93427B
:1044200011D17B681B689B6803F00703FB60FB6886
:10443000062B10D07B681B681A687B681B6842F0EB
:1044400001021A6007E07B681B681A687B681B68BA
:1044500042F001021A60002318461037BD4680BDA5
:10446000002C0140000400400008004080B586B0E8
:1044700000AFF860B9607A600023FB75FB6893F8C1
:104480003C30012B01D10223AEE0FB68012283F80E
:104490003C207B680C2B00F29F8001A252F823F095
:1044A000D5440008D9450008D9450008D945000879
:1044B00015450008D9450008D9450008D945000828
:1044C00057450008D9450008D9450008D9450008D6
:1044D00097450008FB681B68B968184600F0B2F9F8
:1044E000FB681B689A69FB681B6842F008029A61C6
:1044F000FB681B689A69FB681B6822F004029A61DA
:10450000FB681B689969BB681A69FB681B680A43EA
:104510009A6164E0FB681B68B968184600F0F8F916
:10452000FB681B689A69FB681B6842F400629A6129
:10453000FB681B689A69FB681B6822F480629A61B9
:10454000FB681B689969BB681B691A02FB681B68DA
:104550000A439A6143E0FB681B68B968184600F09B
:1045600041FAFB681B68DA69FB681B6842F00802C5
:10457000DA61FB681B68DA69FB681B6822F00402D9
:10458000DA61FB681B68D969BB681A69FB681B683C
:104590000A43DA6123E0FB681B68B968184600F03B
:1045A0008BFAFB681B68DA69FB681B6842F40062DF
:1045B000DA61FB681B68DA69FB681B6822F48062B9
:1045C000DA61FB681B68D969BB681B691A02FB6862
:1045D0001B680A43DA6102E00123FB7500BFFB6838
:1045E000002283F83C20FB7D18461837BD4680BD6D
:1045F00080B584B000AF786039600023FB737B68BE
:1046000093F83C30012B01D10223B4E07B680122F6
:1046100083F83C207B68022283F83D207B681B687E
:104620009B68BB60BB6823F07703BB60BB6823F467
:104630007F43BB607B681B68BA689A603B681B68F5
:10464000B3F5005F3ED0B3F5005F00F28780B3F5AD
:10465000805F00F08680B3F5805F7FD8702B1AD022
:10466000702B7BD8602B50D0602B77D8502B3CD050
:10467000502B73D8402B58D0402B6FD8302B64D0A0
:10468000302B6BD8202B60D0202B67D8002B5CD030
:10469000102B5AD062E07B6818683B6899683B68C9
:1046A0005A683B68DB6800F0CCFA7B681B689B6843
:1046B000BB60BB6843F07703BB607B681B68BA686C
:1046C0009A604FE07B6818683B6899683B685A6855
:1046D0003B68DB6800F0B5FA7B681B689A687B680A
:1046E0001B6842F480429A603CE07B6818683B6833
:1046F00059683B68DB681A4600F02CFA7B681B6837
:104700005021184600F083FA2CE07B6818683B685B
:1047100059683B68DB681A4600F04AFA7B681B68F8
:104720006021184600F073FA1CE07B6818683B684B
:1047300059683B68DB681A4600F00CFA7B681B6816
:104740004021184600F063FA0CE07B681A683B6869
:104750001B681946104600F05AFA03E00123FB7368
:1047600000E000BF7B68012283F83D207B680022C7
:1047700083F83C20FB7B18461037BD4680BD000007
:1047800080B485B000AF786039607B681B68FB60DF
:104790007B68294A93420BD07B68B3F1804F07D0E6
:1047A0007B68264A934203D07B68254A934208D10E
:1047B000FB6823F07003FB603B685B68FA68134397
:1047C000FB607B681C4A93420BD07B68B3F1804F3F
:1047D00007D07B68194A934203D07B68184A9342FA
:1047E00008D1FB6823F44073FB603B68DB68FA6820
:1047F0001343FB60FB6823F080023B685B69134353
:10480000FB607B68FA681A603B689A687B68DA62CA
:104810003B681A687B689A627B68074A934203D1B7
:104820003B681A697B681A637B6801225A6100BF82
:104830001437BD4680BC7047002C01400004004086
:104840000008004080B487B000AF786039607B68B2
:104850001B6A7B617B681B6A23F001027B681A621A
:104860007B685B683B617B689B69FB60FB6823F04E
:104870007003FB60FB6823F00303FB603B681B686D
:10488000FA681343FB607B6923F002037B613B689A
:104890009B687A6913437B617B681C4A93420CD105
:1048A0007B6923F008037B613B68DB687A6913430B
:1048B0007B617B6923F004037B617B68134A93422D
:1048C00011D13B6923F480733B613B6923F400738E
:1048D0003B613B685B693A6913433B613B689B6999
:1048E0003A6913433B617B683A695A607B68FA68AE
:1048F0009A613B685A687B685A637B687A691A6276
:1049000000BF1C37BD4680BC704700BF002C014073
:1049100080B487B000AF786039607B681B6A7B61C8
:104920007B681B6A23F010027B681A627B685B68F5
:104930003B617B689B69FB60FB6823F4E043FB60A1
:10494000FB6823F44073FB603B681B681B02FA683A
:104950001343FB607B6923F020037B613B689B680A
:104960001B017A6913437B617B681D4A93420DD119
:104970007B6923F080037B613B68DB681B017A69FC
:1049800013437B617B6923F040037B617B68144A9E
:10499000934213D13B6923F480633B613B6923F469
:1049A00000633B613B685B699B003A6913433B6171
:1049B0003B689B699B003A6913433B617B683A699A
:1049C0005A607B68FA689A613B685A687B689A63A8
:1049D0007B687A691A6200BF1C37BD4680BC70478D
:1049E000002C014080B487B000AF786039607B68EC
:1049F0001B6A7B617B681B6A23F480727B681A6286
:104A00007B685B683B617B68DB69FB60FB6823F06C
:104A10007003FB60FB6823F00303FB603B681B68CB
:104A2000FA681343FB607B6923F400737B613B6886
:104A30009B681B027A6913437B617B681D4A934222
:104A40000DD17B6923F400637B613B68DB681B024B
:104A50007A6913437B617B6923F480637B617B68A4
:104A6000144A934213D13B6923F480533B613B6961
:104A700023F400533B613B685B691B013A691343B4
:104A80003B613B689B691B013A6913433B617B684F
:104A90003A695A607B68FA68DA613B685A687B68F1
:104AA000DA637B687A691A6200BF1C37BD4680BC36
:104AB000704700BF002C014080B487B000AF786021
:104AC00039607B681B6A3B617B681B6A23F48052F8
:104AD0007B681A627B685B687B617B68DB69FB6073
:104AE000FB6823F4E043FB60FB6823F44073FB6046
:104AF0003B681B681B02FA681343FB603B6923F4A5
:104B000000533B613B689B681B033A6913433B615D
:104B10007B680F4A934209D17B6923F480437B6110
:104B20003B685B699B017A6913437B617B687A69A7
:104B30005A607B68FA68DA613B685A687B681A6475
:104B40007B683A691A6200BF1C37BD4680BC70475B
:104B5000002C014080B487B000AFF860B9607A6083
:104B6000FB681B6A7B61FB681B6A23F00102FB6820
:104B70001A62FB689B693B613B6923F0F0033B6170
:104B80007B681B013A6913433B617B6923F00A038D
:104B90007B617A69BB6813437B61FB683A699A6100
:104BA000FB687A691A6200BF1C37BD4680BC70473B
:104BB00080B487B000AFF860B9607A60FB681B6AA8
:104BC0007B61FB681B6A23F01002FB681A62FB68BA
:104BD0009B693B613B6923F470433B617B681B032A
:104BE0003A6913433B617B6923F0A0037B61BB6897
:104BF0001B017A6913437B61FB683A699A61FB6820
:104C00007A691A6200BF1C37BD4680BC704780B409
:104C100085B000AF786039607B689B68FB60FB689B
:104C200023F07003FB603A68FB68134343F007030B
:104C3000FB607B68FA689A6000BF1437BD4680BC91
:104C4000704780B487B000AFF860B9607A603B60AD
:104C5000FB689B687B617B6923F47F437B613B68D6
:104C60001A027B681A43BB6813437A6913437B615A
:104C7000FB687A699A6000BF1C37BD4680BC7047EC
:104C800080B487B000AFF860B9607A60BB6803F0A9
:104C90001F03012202FA03F37B61FB681A6A7B6936
:104CA000DB431A40FB681A62FB681A6ABB6803F0B0
:104CB0001F03796801FA03F31A43FB681A6200BF05
:104CC0001C37BD4680BC704780B485B000AF7860AB
:104CD00039607B6893F83C30012B01D1022346E018
:104CE0007B68012283F83C207B68022283F83D2008
:104CF0007B681B685B68FB607B681B689B68BB60AC
:104D0000FB6823F07003FB603B681B68FA68134381
:104D1000FB607B681B68FA685A607B681B68164AF0
:104D200093420ED07B681B68B3F1804F09D07B683B
:104D30001B68124A934204D07B681B68104A934256
:104D40000CD1BB6823F08003BB603B685B68BA682A
:104D50001343BB607B681B68BA689A607B6801225A
:104D600083F83D207B68002283F83C20002318460E
:104D70001437BD4680BC7047002C01400004004041
:104D80000008004080B485B000AF7860396000232F
:104D9000FB607B6893F83C30012B01D102233DE09E
:104DA0007B68012283F83C20FB6823F0FF023B680C
:104DB000DB681343FB60FB6823F440723B689B682D
:104DC0001343FB60FB6823F480623B685B6813431A
:104DD000FB60FB6823F400623B681B681343FB60C5
:104DE000FB6823F480523B681B691343FB60FB683C
:104DF00023F400523B685B691343FB60FB6823F4B8
:104E000080423B68DB691343FB607B681B68FA6880
:104E10005A647B68002283F83C200023184614372C
:104E2000BD4680BC704784B080B483B000AF78606A
:104E300007F1140080E80E00002318460C37BD4629
:104E400080BC04B0704780B485B000AF78604FF488
:104E50003F43FB607B68B3F840309AB2FB689BB27B
:104E6000DB439BB213409AB27B68A3F84020002337
:104E700018461437BD4680BC704780B483B000AF7D
:104E800078600B46FB70002318460C37BD4680BC8B
:104E9000704784B080B483B000AF786007F114002D
:104EA00080E80E007B680122A3F840207B68002286
:104EB000A3F840207B680022A3F844207B680022EE
:104EC000A3F85020002318460C37BD4680BC04B020
:104ED000704780B483B000AF7860002318460C3769
:104EE000BD4680BC704700000EB46FF0004100B5B5
:104EF0009CB01DAB029006900791049108480949A7
:104F000053F8042B0591006802A9019300F08EF973
:104F10000022029B1A701CB05DF804EB03B07047CE
:104F20005C0000200802FFFF03460244934200D1C8
:104F3000704703F8011BF9E7014B1868704700BF81
:104F40005C00002070B500260C4D0D4C641BA410B5
:104F5000A64209D100F07AFC00260A4D0A4C641BD7
:104F6000A410A64205D170BD55F8043B9847013600
:104F7000EEE755F8043B98470136F2E7F058000891
:104F8000F0580008F0580008F458000870477047BF
:104F900038B50546002940D051F8043C0C1F002BC1
:104FA000B8BFE41800F0DCF81C4A136833B963603A
:104FB00014602846BDE8384000F0D8B8A34208D9AC
:104FC000206821188B4201BF19685B6809182160AD
:104FD000EDE71A465B680BB1A342FAD91168501885
:104FE000A0420BD120680144501883421160E0D1E7
:104FF00018685B68084410605360DAE702D90C2334
:105000002B60D6E7206821188B4201BF19685B68C6
:105010000918216063605460CBE738BDF4050020B7
:1050200070B50E4E0C463168054611B900F0AAFB6A
:1050300030602146284600F0A5FB431C0AD0C41C62
:1050400024F00304A04207D0211A284600F09AFB5E
:10505000013001D14FF0FF34204670BDF80500202B
:105060002DE9F843CD1C25F0030508350C2D38BF7C
:105070000C25002D074601DBA94205D90C2300268B
:105080003B603046BDE8F883DFF8D08000F068F878
:10509000D8F800301C465CBB29463846FFF7C0FFF5
:1050A000431C044655D1D8F800402646002E45D171
:1050B000002C48D023683146384604EB030900F041
:1050C00061FB81453FD1216838466D1A2946FFF7BB
:1050D000A7FF013037D023682B442360D8F8003075
:1050E000002B38D05A68A2422BD100225A600FE020
:1050F0002268521B1FD40B2A17D96119A3422560BD
:1051000018BF5960636808BFC8F8001062514B604F
:10511000384604F10B0600F029F826F00706231D97
:10512000F21AAED09B1BA350ABE7A3426268DDD15D
:10513000C8F80020ECE723466468ACE7344676689C
:10514000B4E71346CCE70C2338463B6000F00EF87A
:1051500097E72560DCE75B60FFDE00BFF405002019
:105160000148FFF713BF00BFF00500200148FFF71B
:105170000EBF00BFF00500202DE9F0471F468E68E6
:105180008246BE420C4690460B682CD88A8912F49F
:10519000906F26D06569096905EB4505A3EB010908
:1051A00005EBD5757B1C4B446D109D4238BF1D46E9
:1051B000530527D52946FFF753FF064660B34A46F5
:1051C000216900F0FDFAA38923F4906343F0800382
:1051D000A38126614E4426603E466561A5EB090524
:1051E000A560BE4200D93E4632464146206800F0E6
:1051F000AFFA0020A3689B1BA3602368334423609D
:10520000BDE8F0872A4600F0E9FA06460028E0D11A
:1052100050462169FFF7BCFE0C23CAF80030A38971
:105220004FF0FF3043F04003A381E9E72DE9F04F51
:1052300098468B8907461B060D4614469DB00ED531
:105240000B6963B94021FFF70BFF2860286120B983
:105250000C233B604FF0FF30D0E040236B61002314
:10526000099320238DF8293030234FF00109CDF820
:105270000C80DFF8A0818DF82A3023469A4613F877
:10528000012B0AB1252AF9D1BAEB040B0BD05B46EE
:10529000224629463846FFF76FFF013000F0A9800B
:1052A000099A5A4409929AF80030002B00F0A18024
:1052B00000234FF0FF32CDE905230AF1010A0493E0
:1052C00007938DF853301A935446052214F8011BA6
:1052D000504800F067FA049AD8B9D00644BF20239A
:1052E0008DF85330110744BF2B238DF853309AF8B3
:1052F00000302A2B15D0544600204FF00A0C079A94
:10530000214611F8013B303B092B4DD9B0B1079232
:1053100014E0A0EB080309FA03F31343A246049335
:10532000D2E7039B191D1B680391002BBBBF5B4297
:1053300042F0020207930793B8BF049223782E2B02
:105340000CD163782A2B34D1039B02341A1D1B68BD
:105350000392002BB8BF4FF0FF330593DFF8B8A0DE
:1053600003225046217800F01DFA38B14022049BF8
:10537000A0EB0A00824013430134049314F8011B8C
:10538000062226488DF8281000F00CFA002838D0A4
:10539000234B1BBB039B073323F007030833039303
:1053A000099B3344099368E70C4601200CFB023249
:1053B000A6E700234FF00A0C194601340593204656
:1053C00010F8012B303A092A03D9002BC6D00591D9
:1053D000C4E7044601230CFB0121F0E703AB009373
:1053E0002A4638460F4B04A9AFF30080421C0646FC
:1053F000D6D1AB895B063FF52DAF09981DB0BDE84E
:10540000F08F03AB00932A463846064B04A900F000
:105410007DF8EBE7BA580008C0580008C4580008E7
:1054200000000000795100082DE9F0471646994622
:105430008A680B6907469342B8BF1346336091F8F8
:1054400043200C46DDF820800AB101333360236825
:10545000990642BF336802333360256815F00605AC
:1054600006D104F1190AE36832689B1AAB422BDCBF
:1054700094F84320131E226818BF0123920630D4EB
:105480004946384604F14302C047013023D023681F
:10549000226903F00603042B14BF002533684FF084
:1054A000000608BFE56804F11A0408BFED1A54F8B5
:1054B000123C08BF25EAE5759342C4BF9B1AED185C
:1054C000B5421AD1002008E0012352464946384629
:1054D000C047013003D14FF0FF30BDE8F087013500
:1054E000C1E73020E11881F843005A1C94F84510B8
:1054F0002244023382F84310C2E701232246494680
:105500003846C0470130E6D00136D9E72DE9FF47DC
:105510000F7E9146782F80460C469A460C9D01F1ED
:10552000430207D8622F0AD8002F00F0D580582FE9
:1055300000F0C18004F1420584F842703AE0A7F11E
:105540006303152BF6D801A151F823F0A5550008E7
:10555000B95500083555000835550008355500087F
:1055600035550008B955000835550008355500086F
:105570003555000835550008BF560008E5550008A8
:10558000795600083555000835550008E1560008E1
:1055900035550008E5550008355500083555000813
:1055A000815600082B681A1D1B682A6004F1420509
:1055B00084F842300123A0E020682B68070603F13D
:1055C0000401296001D51E6803E04606FBD5B3F946
:1055D0000060002E03DA2D23764284F843300A233C
:1055E000594812E02B682068191D2960050601D56D
:1055F0001E6802E04106FBD51E886F2F0CBF0823F2
:105600000A235148002184F843106568002DA8BF83
:105610002168A560A4BF21F0040121600EB9002D0E
:105620004BD01546B6FBF3F103FB1167C75D05F8D8
:10563000017D3746BB420E46F4D9082B0BD12368B7
:10564000DE0708D5236961689942DEBF302305F87B
:10565000013C05F1FF35521B22614B462146404675
:10566000CDF800A003AAFFF7DFFE01304AD14FF0CA
:10567000FF3004B0BDE8F087236843F020032360C7
:105680007827324884F84570236829681F0651F846
:10569000046B02D45F0648BFB6B2DF0748BF43F0D1
:1056A0002003296048BF23601EB9236823F020032C
:1056B00023601023A6E72448E4E71546BDE72B68DE
:1056C0002668181D6169286035061B6801D51960B8
:1056D00002E07006FBD51980002315462361BCE764
:1056E0002B6800211A1D2A601D686268284600F098
:1056F00059F808B1401B606063682361002384F897
:105700004330AAE72A46494640462369D04701303C
:10571000ADD023689B0713D4E068039B9842B8BFC1
:105720001846A6E70123324649464046D047013095
:105730009DD00135E36803995B1AAB42F2DCEBE7DD
:10574000002504F11906F5E7CB580008DC580008DD
:10575000884210B501EB020402D98442234607D8DF
:10576000431EA14208D011F8012B03F8012FF8E7DE
:10577000014602448A4200D110BD13F8014D02F8DF
:10578000014DF7E738B50023054D044608462B6068
:10579000FCF770F9431C02D12B6803B1236038BDBC
:1057A000EC050020034610B5C9B2024493421846E6
:1057B00001D1002003E0047801338C42F6D110BD02
:1057C0000A44914200F1FF3300D1704710B511F83F
:1057D000014B914203F8014FF9D110BD2DE9F04181
:1057E000804614460E4621B91146BDE8F041FFF748
:1057F00037BC2AB9FFF7CCFB25462846BDE8F08127
:1058000000F01BF88442074602D8B4EB500F12D8C0
:1058100021464046FFF724FC05460028EDD0BC4257
:105820002246314628BF3A46FFF7CAFF3146404676
:10583000FFF7AEFBE1E73546DFE751F8043C181F00
:10584000002BBCBF0B58C01870470000F8B500BF54
:10585000F8BC08BC9E467047F8B500BFF8BC08BC51
:045860009E467047A9
:1058640056696E3A2000000025642E256457000016
:10587400566F75743A200000424154544552593AC7
:10588400200000004C4F41443A200000000000007A
:1058940000000000010203040607080900000000DC
:1058A4000102030402030405060708090A0B0C0D90
:1058B4000E0F10100102232D302B2000686C4C00B9
:1058C40065666745464700303132333435363738FC
:1058D400394142434445460030313233343536375A
:0C58E400383961626364656600000000F2
:0458F0003501000876
:0458F4001101000896
:1058F800460000000024F400100000000100000031
:1059080000000000B40400201C05002084050020CD
:10591800000000000000000000000000000000007F
:10592800000000000000000000000000000000006F
:10593800000000000000000000000000000000005F
:10594800000000000000000000000000100000201F
:0400000508001AEDE8
:00000001FF
