:020000040800F2
:1000000000500020A11A0008A5180008AB1800082D
:10001000B1180008B7180008BD180008000000005B
:10002000000000000000000000000000C3180008ED
:10003000CF18000800000000DB180008E7180008CF
:10004000E91A0008E91A0008E91A0008E91A000884
:10005000E91A0008E91A0008E91A0008E91A000874
:10006000E91A0008E91A0008F31800080119000845
:10007000E91A0008E91A0008E91A0008E91A000854
:10008000E91A0008E91A0008E91A0008E91A000844
:10009000E91A0008E91A0008E91A0008E91A000834
:1000A000E91A0008E91A0008E91A0008E91A000824
:1000B000E91A0008E91A0008E91A0008E91A000814
:1000C000E91A0008E91A0008E91A0008E91A000804
:1000D000E91A0008E91A0008E91A0008E91A0008F4
:1000E000E91A0008E91A0008E91A000800000000EF
:1000F0000000000000000000000000000000000000
:0C01000000000000000000005FF808F1A3
:1001100010B5054C237833B9044B13B10448AFF341
:1001200000800123237010BDC406002000000000E1
:100130006894000808B5034B1BB103490348AFF3AB
:10014000008008BD00000000C80600206894000878
:10015000034613F8012B002AFBD1181A0138704707
:1001600081F0004102E000BF83F0004330B54FEA68
:1001700041044FEA430594EA050F08BF90EA020FD5
:100180001FBF54EA000C55EA020C7FEA645C7FEA68
:10019000655C00F0E2804FEA5454D4EB5555B8BF8B
:1001A0006D420CDD2C4480EA020281EA030382EAFC
:1001B000000083EA010180EA020281EA0303362D8E
:1001C00088BF30BD11F0004F4FEA01314FF4801C61
:1001D0004CEA113102D0404261EB410113F0004F73
:1001E0004FEA03334CEA133302D0524263EB43032A
:1001F00094EA050F00F0A780A4F10104D5F1200EC8
:100200000DDB02FA0EFC22FA05F2801841F1000122
:1002100003FA0EF2801843FA05F359410EE0A5F1F6
:1002200020050EF1200E012A03FA0EFC28BF4CF027
:10023000020C43FA05F3C01851EBE37101F00045DD
:1002400007D54FF0000EDCF1000C7EEB00006EEBEA
:100250000101B1F5801F1BD3B1F5001F0CD3490874
:100260005FEA30004FEA3C0C04F101044FEA4452CB
:1002700012F5800F80F09A80BCF1004F08BF5FEA52
:10028000500C50F1000041EB045141EA050130BD32
:100290005FEA4C0C404141EB0101013C28BFB1F544
:1002A000801FE9D291F0000F04BF01460020B1FA8F
:1002B00081F308BF2033A3F10B03B3F120020CDA62
:1002C0000C3208DD02F1140CC2F10C0201FA0CF040
:1002D00021FA02F10CE002F11402D8BFC2F1200CA5
:1002E00001FA02F120FA0CFCDCBF41EA0C0190405B
:1002F000E41AA2BF01EB0451294330BD6FEA0404A4
:100300001F3C1CDA0C340EDC04F11404C4F120028E
:1003100020FA04F001FA02F340EA030021FA04F3A0
:1003200045EA030130BDC4F10C04C4F1200220FAF7
:1003300002F001FA04F340EA0300294630BD21FA35
:1003400004F0294630BD94F0000F83F4801306BFFB
:1003500081F480110134013D4EE77FEA645C18BFEF
:100360007FEA655C29D094EA050F08BF90EA020F86
:1003700005D054EA000C04BF1946104630BD91EA7E
:10038000030F1EBF0021002030BD5FEA545C05D181
:100390004000494128BF41F0004130BD14F58004C0
:1003A0003CBF01F5801130BD01F0004545F0FE4134
:1003B00041F470014FF0000030BD7FEA645C1ABF69
:1003C000194610467FEA655C1CBF0B46024650EAA0
:1003D000013406BF52EA033591EA030F41F40021CC
:1003E00030BD00BF90F0000F04BF0021704730B552
:1003F0004FF4806404F132044FF000054FF0000127
:1004000050E700BF90F0000F04BF0021704730B5E7
:100410004FF4806404F1320410F0004548BF4042BC
:100420004FF000013EE700BF42004FEAE2014FEA11
:1004300031014FEA02701FBF12F07F4393F07F4FEC
:1004400081F06051704732F07F4208BF704793F0EF
:100450007F4F04BF41F40021704730B54FF4607402
:1004600001F0004521F000411CE700BF50EA010205
:1004700008BF704730B54FF000050AE050EA0102AE
:1004800008BF704730B511F0004502D5404261EB1E
:1004900041014FF4806404F132045FEA915C3FF45F
:1004A000D8AE4FF003025FEADC0C18BF03325FEAFC
:1004B000DC0C18BF033202EBDC02C2F1200300FAAD
:1004C00003FC20FA02F001FA03FE40EA0E0021FAD2
:1004D00002F11444BDE600BF70B54FF0FF0C4CF4C0
:1004E000E06C1CEA11541DBF1CEA135594EA0C0F72
:1004F00095EA0C0F00F0DEF82C4481EA030621EAAD
:100500004C5123EA4C5350EA013518BF52EA0335E7
:1005100041F4801143F4801338D0A0FB02CE4FF099
:100520000005E1FB02E506F00042E0FB03E54FF0C9
:100530000006E1FB03569CF0000F18BF4EF0010EC1
:10054000A4F1FF04B6F5007F64F5407404D25FEABD
:100550004E0E6D4146EB060642EAC62141EA555170
:100560004FEAC52040EA5E504FEACE2EB4F1FD0CB2
:1005700088BFBCF5E06F1ED8BEF1004F08BF5FEA30
:10058000500E50F1000041EB045170BD06F00046E2
:1005900046EA010140EA020081EA0301B4EB5C048F
:1005A000C2BFD4EB0C0541EA045170BD41F4801187
:1005B0004FF0000E013C00F3AB8014F1360FDEBFAC
:1005C000002001F0004170BDC4F10004203C35DA88
:1005D0000C341BDC04F11404C4F1200500FA05F30B
:1005E00020FA04F001FA05F240EA020001F00042AC
:1005F00021F0004110EBD37021FA04F642EB060122
:100600005EEA430E08BF20EAD37070BDC4F10C044B
:10061000C4F1200500FA04F320FA05F001FA04F20F
:1006200040EA020001F0004110EBD37041F10001FB
:100630005EEA430E08BF20EAD37070BDC4F1200506
:1006400000FA05F24EEA020E20FA04F301FA05F26E
:1006500043EA020321FA04F001F0004121FA04F216
:1006600020EA020000EBD3705EEA430E08BF20EAE6
:10067000D37070BD94F0000F0FD101F00046400020
:1006800041EB010111F4801F08BF013CF7D041EAA2
:10069000060195F0000F18BF704703F000465200A6
:1006A00043EB030313F4801F08BF013DF7D043EA77
:1006B0000603704794EA0C0F0CEA135518BF95EA2D
:1006C0000C0F0CD050EA410618BF52EA4306D1D1B4
:1006D00081EA030101F000414FF0000070BD50EAD3
:1006E000410606BF1046194652EA430619D094EA5D
:1006F0000C0F02D150EA013613D195EA0C0F05D147
:1007000052EA03361CBF104619460AD181EA03019A
:1007100001F0004141F0FE4141F470014FF0000052
:1007200070BD41F0FE4141F4780170BD70B54FF0ED
:10073000FF0C4CF4E06C1CEA11541DBF1CEA13556D
:1007400094EA0C0F95EA0C0F00F0A7F8A4EB05044F
:1007500081EA030E52EA03354FEA013100F0888046
:100760004FEA03334FF0805545EA131343EA12630F
:100770004FEA022245EA111545EA10654FEA0026C4
:100780000EF000419D4208BF964244F1FD0404F57D
:10079000407402D25B084FEA3202B61A65EB0305D9
:1007A0005B084FEA32024FF480104FF4002CB6EB96
:1007B000020E75EB030E22BFB61A754640EA0C0016
:1007C0005B084FEA3202B6EB020E75EB030E22BF56
:1007D000B61A754640EA5C005B084FEA3202B6EB97
:1007E000020E75EB030E22BFB61A754640EA9C0056
:1007F0005B084FEA3202B6EB020E75EB030E22BF26
:10080000B61A754640EADC0055EA060E18D04FEAE3
:10081000051545EA16754FEA06164FEAC30343EA83
:1008200052734FEAC2025FEA1C1CC0D111F4801F50
:100830000BD141EA00014FF000004FF0004CB6E749
:1008400011F4801F04BF01430020B4F1FD0C88BFE8
:10085000BCF5E06F3FF6AFAEB5EB030C04BFB6EBF3
:10086000020C5FEA500C50F1000041EB045170BDE6
:100870000EF0004E4EEA113114EB5C04C2BFD4EB13
:100880000C0541EA045170BD41F480114FF0000E97
:10089000013C90E645EA060E8DE60CEA135594EA13
:1008A0000C0F08BF95EA0C0F3FF43BAF94EA0C0F16
:1008B0000AD150EA01347FF434AF95EA0C0F7FF48B
:1008C00025AF104619462CE795EA0C0F06D152EADF
:1008D00003353FF4FDAE1046194622E750EA4106C3
:1008E00018BF52EA43067FF4C5AE50EA41047FF4D4
:1008F0000DAF52EA43057FF4EBAE12E74FF0FF3C39
:1009000006E000BF4FF0010C02E000BF4FF0010C09
:100910004DF804CD4FEA410C7FEA6C5C4FEA430C82
:1009200018BF7FEA6C5C1BD001B050EA410C0CBFD1
:1009300052EA430C91EA030F02BF90EA020F002033
:10094000704710F1000F91EA030F58BF994208BF9A
:1009500090422CBFD8176FEAE37040F00100704757
:100960004FEA410C7FEA6C5C02D150EA013C07D1AE
:100970004FEA430C7FEA6C5CD6D152EA033CD3D0F9
:100980005DF8040B704700BF8446104662468C46F3
:100990001946634600E000BF01B5FFF7B7FF002826
:1009A00048BF10F1000F01BD4DF808EDFFF7F4FF4F
:1009B0000CBF012000205DF808FB00BF4DF808EDDA
:1009C000FFF7EAFF34BF012000205DF808FB00BFFD
:1009D0004DF808EDFFF7E0FF94BF012000205DF81F
:1009E00008FB00BF4DF808EDFFF7CEFF94BF0120D4
:1009F00000205DF808FB00BF4DF808EDFFF7C4FFCD
:100A000034BF012000205DF808FB00BF4FEA410C15
:100A10007FEA6C5C02D150EA013C0AD14FEA430CF8
:100A20007FEA6C5C02D152EA033C02D14FF0000035
:100A300070474FF0010070474FEA410212F5001273
:100A400015D211D56FF47873B3EB625212D94FEA15
:100A5000C12343F0004343EA505311F0004F23FAFF
:100A600002F018BF404270474FF00000704750EA54
:100A7000013005D111F0004008BF6FF00040704711
:100A80004FF00000704700BF53B94AB9002908BFB2
:100A900000281CBF4FF0FF314FF0FF3000F072B95B
:100AA000ADF1080C6DE904CE00F006F8DDF804E0C5
:100AB000DDE9022304B070472DE9F047089E0D469A
:100AC00004468E46002B4CD18A42944667D9B2FA2E
:100AD00082F353B102FA03FCC3F1200201FA03FED0
:100AE00020FA02F242EA0E0E9C404FEA1C47BEFB7F
:100AF000F7F11FFA8CF507FB11EE01FB05F0220C54
:100B000042EA0E4290420AD91CEB020201F1FF3E7A
:100B100080F01981904240F2168102396244121A23
:100B2000B2FBF7F007FB102200FB05F5A4B244EA84
:100B30000244A5420AD91CEB040400F1FF3280F004
:100B40000481A54240F201816444023840EA014038
:100B50000021641B1EB1DC400023C6E90043BDE850
:100B6000F0878B4208D9002E00F0EA800021C6E908
:100B700000050846BDE8F087B3FA83F1002948D1A3
:100B8000AB4202D3824200F2F880841A65EB030282
:100B900001209646002EE2D0C6E9004EDFE702B9FA
:100BA000FFDEB2FA82F3002B40F08E80881A01211A
:100BB000170C1FFA82FEB0FBF7F507FB1500220C9D
:100BC00042EA00420EFB05F0904208D91CEB0202FB
:100BD00005F1FF3802D2904200F2CC804546121A4D
:100BE000B2FBF7F007FB10220EFB00FEA4B244EAB2
:100BF0000244A64508D91CEB040400F1FF3202D2DE
:100C0000A64500F2B4801046A4EB0E0440EA05406D
:100C1000A0E7C1F120078B4022FA07FC4CEA030C45
:100C200025FA07FA4FEA1C49BAFBF9F88D4020FA79
:100C300007F309FB18AA1FFA8CFE2B4300FA01F5F3
:100C400008FB0EF01C0C44EA0A44A04202FA01F22E
:100C50000BD91CEB040408F1FF3A80F08680A04217
:100C600040F28380A8F102086444241A98B2B4FBCD
:100C7000F9F309FB134403FB0EFE40EA0444A645C6
:100C800008D91CEB040403F1FF306AD2A64568D9E9
:100C9000023B644443EA0840A0FB0293A4EB0E0429
:100CA0009C42C8469E4654D351D0002E67D0B5EB27
:100CB000080364EB0E04CB4004FA07F71F43CC4053
:100CC000C6E9007400214AE702FA03FCC3F12000E0
:100CD000C1409D4024FA00F04FEA1C472843B1FB75
:100CE000F7F507FB15111FFA8CFE020C42EA0142D0
:100CF00005FB0EF1914204FA03F408D91CEB020241
:100D000005F1FF382FD291422DD9023D6244521A8B
:100D1000B2FBF7F107FB112280B240EA024001FB6F
:100D20000EF2824208D91CEB000001F1FF3816D206
:100D3000824214D902396044801A41EA05413AE7F7
:100D4000314630460BE77146E9E61046FEE64D4572
:100D5000ABD2B9EB020863EB0C0E0138A5E74146B4
:100D6000EAE7034696E74546D1E7D0467DE7644487
:100D7000023849E7023D624431E708460AE7314656
:100D8000EDE600BF704700BF80B586B002AF0346F6
:100D9000FB71FB7923F00F03FB73FB791B01BB7322
:100DA000FB7B43F00C03DBB23B72FB7B43F008039D
:100DB000DBB27B72BB7B43F00C03DBB2BB72BB7B51
:100DC00043F00803DBB2FB7207F1080264230093CF
:100DD00004234E21034801F087FE00BF1037BD46B3
:100DE00080BD00BF5807002080B586B002AF034623
:100DF000FB71FB7923F00F03FB73FB791B01BB73C2
:100E0000FB7B43F00D03DBB23B72FB7B43F009033A
:100E1000DBB27B72BB7B43F00D03DBB2BB72BB7BEF
:100E200043F00903DBB2FB7207F10802642300936D
:100E300004234E21034801F057FE00BF1037BD4682
:100E400080BD00BF5807002080B500AF3320FFF7FA
:100E50009BFF3220FFF798FF322000F0A9FE2820E8
:100E6000FFF792FF322000F0A3FE0120FFF78CFF76
:100E7000322000F09DFE0620FFF786FF322000F0B2
:100E800097FE0C20FFF780FF322000F091FE022039
:100E9000FFF77AFF322000F08BFE8020FFF774FF0F
:100EA00000BF80BD80B582B000AF786006E07B688F
:100EB0005A1C7A601B781846FFF796FF7B681B78F0
:100EC000002BF4D100BF00BF0837BD4680BD80B500
:100ED00000AF0120FFF758FF00BF80BD80B584B090
:100EE00000AF786039607B68012B08D17B68DAB28B
:100EF0003B68DBB21344DBB27F33FB7308E03B6833
:100F0000DBB24033DBB25BB263F07F035BB2FB73F7
:100F1000FB7B1846FFF738FF00BF1037BD4680BD8A
:100F200080B58AB000AF78603960FFF7D0FF314BF1
:100F30001B78002B3BD100210120FFF7CFFF0A20B7
:100F400000F036FE2C48FFF7ADFF0A2000F030FE1F
:100F50007868FFF769FA02460B4607F1080027494F
:100F600003F004FE07F108031846FFF79BFF0A2071
:100F700000F01EFE00210220FFF7B0FF0A2000F063
:100F800017FE1F48FFF78EFF0A2000F011FE386899
:100F9000FFF74AFA02460B4607F10800174903F02B
:100FA000E5FD07F108031846FFF77CFF1DE0FFF79A
:100FB0008EFF01210120FFF791FF0A2000F0F8FDCC
:100FC0001048FFF76FFF0A2000F0F2FD0021022019
:100FD000FFF784FF0A2000F0EBFD0B48FFF762FFEC
:100FE00007F108031846FFF75DFF00BF2837BD462D
:100FF00080BD00BFE00600208094000888940008AF
:101000009094000898940008A494000880B483B0D9
:1010100000AF786039600B4A3B6892FBF3F20A4BF1
:10102000DA62094BDB6A7A6802FB03F3064A074976
:10103000A1FB03135B09536300BF0C37BD4680BCA3
:10104000704700BF00366E01002C01401F85EB5138
:1010500080B500AF0021024802F0F8FE00BF80BD5D
:10106000AC0700200000000080B500AF00F03EFD9E
:1010700000F03EF800F012FA00F0F2F900F096F8F5
:1010800000F0FEF800F02AF900F0C8F9FFF7DCFEE6
:10109000FFF71DFF124B1B7812491846FFF7B6FFEA
:1010A000FFF7D6FF4FF000020F4B0BA1D1E9000173
:1010B000FFF736FF00224FF400510C4801F0A0FB6F
:1010C0004FF4FA6000F074FD01224FF4005107481C
:1010D00001F096FBE6E700BFCDCCCCCCCC8C5440E5
:1010E00000000020A08601000040404000100140A8
:1010F00080B594B000AF07F12803282200211846DC
:1011000003F097FD07F1140300221A605A609A60F9
:10111000DA601A613B1D00221A605A609A60DA6038
:101120000123BB624FF48033FB6200233B63012346
:10113000BB6302237B644FF48033BB644FF48013A2
:10114000FB6407F12803184602F026F90346002B3A
:1011500001D000F059FA0F237B610223BB61002309
:10116000FB614FF4A0633B6200237B6207F1140331
:101170000121184602F092FB0346002B01D000F03B
:1011800043FA12237B604FF48043FB604FF48003EB
:101190003B613B1D184602F0FBFC0346002B01D0CF
:1011A00000F032FA00BF5037BD4680BD80B584B034
:1011B00000AF3B1D00221A605A609A602E4B2F4AE6
:1011C0001A602D4B4FF480729A602B4B00221A73D9
:1011D000294B00221A75284B4FF46022DA61264B06
:1011E00000225A60244B04221A61234800F004FDB7
:1011F0000346002B01D000F007FA00237B60012397
:10120000BB600023FB603B1D19461B4800F0CCFD72
:101210000346002B01D000F0F7F901237B60022385
:10122000BB603B1D1946144800F0BEFD0346002B71
:1012300001D000F0E9F902237B600323BB603B1D72
:1012400019460D4800F0B0FD0346002B01D000F018
:10125000DBF903237B600423BB603B1D1946064872
:1012600000F0A2FD0346002B01D000F0CDF900BF35
:101270001037BD4680BD00BFE406002000240140B9
:1012800080B500AF124B134A1A60114B124A5A60D4
:101290000F4B00229A600E4B0022DA600C4B4FF489
:1012A00080421A610A4B00225A61094B00229A615E
:1012B000074B0022DA61064B00221A62044801F053
:1012C000CFFA0346002B01D000F09EF900BF80BD8D
:1012D0005807002000540040A086010080B596B059
:1012E00000AF07F1480300221A605A609A60DA6082
:1012F00007F1400300221A605A6007F1240300221C
:101300001A605A609A60DA601A615A619A613B1DEC
:1013100020220021184603F08CFC3E4B3E4A1A6006
:101320003C4B00225A603B4B00229A60394B6322AF
:10133000DA60384B00221A61364B00225A61354B75
:1013400000229A61334802F0D9FC0346002B01D0F9
:1013500000F05AF94FF48053BB6407F14803194673
:101360002C4802F0D7FE0346002B01D000F04CF9C8
:10137000284802F012FD0346002B01D000F044F98A
:1013800000233B6400237B6407F140031946214896
:1013900003F02CFA0346002B01D000F035F960234E
:1013A0007B620023BB620023FB6200233B630023BC
:1013B0007B630023BB630023FB6307F1240300224C
:1013C0001946144802F0E4FD0346002B01D000F05A
:1013D0001BF900237B600023BB600023FB6000231C
:1013E0003B6100237B614FF40053BB6100233B62F0
:1013F0003B1D1946074803F057FA0346002B01D05E
:1014000000F002F9034800F0FBF900BF5837BD4671
:1014100080BD00BFAC070020002C014080B500AFAC
:101420000D4B0E4A1A600C4B08225A600A4B0222DE
:101430009A60094B00229A61074B0022DA61064B41
:1014400000221A62044801F0A7FE0346002B01D0D7
:1014500000F0DAF800BF80BDF4070020005C004017
:1014600080B582B000AF0C4B5B690B4A43F00103BF
:101470005361094B5B6903F001037B607B680022C9
:1014800000210B2000F0A1FE0B2000F0BAFE00BFEF
:101490000837BD4680BD00BF0010024080B588B04F
:1014A00000AF07F1100300221A605A609A60DA60F8
:1014B000424B9B69414A43F0100393613F4B9B6948
:1014C00003F01003FB60FB683C4B9B693B4A43F015
:1014D00020039361394B9B6903F02003BB60BB6819
:1014E000364B9B69354A43F004039361334B9B6948
:1014F00003F004037B607B68304B9B692F4A43F009
:10150000080393612D4B9B6903F008033B603B6824
:1015100000224FF400512A4801F072F90022012103
:10152000284801F06DF900224FF40071264801F0BF
:1015300067F94FF400533B6101237B610023BB61DA
:101540000223FB6107F1100319461D4800F0D4FF88
:1015500010233B611D4B7B610123BB6107F110032D
:101560001946194800F0C8FF01233B6101237B6144
:101570000023BB610223FB6107F1100319461148E8
:1015800000F0BAFF4FF400733B6101237B6100233D
:10159000BB610223FB6107F1100319460A4800F002
:1015A000ABFF002200210A2000F00FFE0A2000F00D
:1015B00028FE00BF2037BD4680BD00BF001002409E
:1015C00000100140000C0140000801400000211003
:1015D00080B483B000AF0346FB80FB88102B0AD198
:1015E000084B1B78002B0CBF01230023DBB21A46EB
:1015F000044B1A7000E000BF00BF0C37BD4680BC32
:10160000704700BFE006002080B400AF72B600BF94
:10161000FEE7000080B485B000AF154B9B69144A0B
:1016200043F001039361124B9B6903F00103BB601C
:10163000BB680F4BDB690E4A43F08053D3610C4B00
:10164000DB6903F080537B607B680A4B5B68FB605F
:10165000FB6823F0E063FB60FB6843F00073FB6012
:10166000044AFB68536000BF1437BD4680BC704716
:10167000001002400000014080B588B000AF7860E3
:1016800007F1100300221A605A609A60DA607B68E2
:101690001B68284A934249D1274B9B69264A43F449
:1016A00000739361244B9B6903F40073FB60FB6838
:1016B000214B9B69204A43F0040393611E4B9B69B5
:1016C00003F00403BB60BB680F233B6103237B6112
:1016D00007F110031946194800F00EFF184B194A7C
:1016E0001A60174B00225A60154B00229A60144B67
:1016F0008022DA60124B4FF400721A61104B4FF4E3
:1017000000625A610E4B20229A610D4B0022DA6171
:101710000B4800F091FD0346002B01D0FFF774FF4A
:101720007B68074A1A62064A7B68536200BF20370B
:10173000BD4680BD00240140001002400008014069
:10174000140700200800024080B588B000AF786020
:1017500007F1100300221A605A609A60DA607B6811
:101760001B68154A934223D1144B9B69134A43F0DB
:1017700008039361114B9B6903F00803FB60FB684E
:10178000C0233B6112237B610323FB6107F110033C
:1017900019460B4800F0B0FE084BDB69074A43F4DA
:1017A0000013D361054BDB6903F40013BB60BB6816
:1017B00000BF2037BD4680BD0054004000100240ED
:1017C000000C014080B485B000AF78607B681B6876
:1017D000094A93420BD1094B9B69084A43F40063C1
:1017E0009361064B9B6903F40063FB60FB6800BFD9
:1017F0001437BD4680BC7047002C014000100240E9
:1018000080B588B000AF786007F1100300221A603D
:101810005A609A60DA607B681B68104A934218D15C
:101820000F4B9B690E4A43F0040393610C4B9B6979
:1018300003F00403FB60FB684FF480733B610223F9
:101840007B610223FB6107F110031946054800F094
:1018500053FE00BF2037BD4680BD00BF002C0140B5
:10186000001002400008014080B485B000AF7860ED
:101870007B681B68094A93420BD1094BDB69084A14
:1018800043F40003D361064BDB6903F40003FB6000
:10189000FB6800BF1437BD4680BC7047005C004049
:1018A0000010024080B400AFFEE780B400AFFEE756
:1018B00080B400AFFEE780B400AFFEE780B400AFB5
:1018C000FEE780B400AF00BFBD4680BC704780B467
:1018D00000AF00BFBD4680BC704780B400AF00BF02
:1018E000BD4680BC704780B500AF00F045F900BF31
:1018F00080BD80B500AF102000F09AFF00BF80BD12
:1019000080B500AF024800F0F1FC00BF80BD00BF11
:101910001407002080B400AF01231846BD4680BCE8
:10192000704780B582B000AF7860396003F0D0F9BD
:10193000034616221A604FF0FF3318460837BD469B
:1019400080BD80B582B000AF78604FF0FF3178681D
:10195000FFF7E7FFFEE780B586B000AFF860B9603B
:101960007A6000237B610AE0AFF300800146BB6828
:101970005A1CBA60CAB21A707B6901337B617A69FA
:101980007B689A42F0DB7B6818461837BD4680BDFD
:1019900080B586B000AFF860B9607A6000237B61E3
:1019A00009E0BB685A1CBA601B781846AFF3008088
:1019B0007B6901337B617A697B689A42F1DB7B68E2
:1019C00018461837BD4680BD80B483B000AF78603C
:1019D0004FF0FF3318460C37BD4680BC704780B4CB
:1019E00083B000AF786039603B684FF400525A60B2
:1019F000002318460C37BD4680BC704780B483B0C6
:101A000000AF7860012318460C37BD4680BC704794
:101A100080B485B000AFF860B9607A6000231846E2
:101A20001437BD4680BC704780B586B000AF786083
:101A3000144A154BD31A7B617B693B61134B1B68BE
:101A4000002B02D1114B124A1A60104B1A687B68A6
:101A500013443A699A4207D203F03AF903460C223A
:101A60001A604FF0FF3309E0084B1B68FB60074B1F
:101A70001A687B681344054A1360FB6818461837D8
:101A8000BD4680BD0050002000040000E40A002094
:101A9000F80D002080B400AF00BFBD4680BC704789
:101AA000FFF7F8FF0B480C490C4A002302E0D4581A
:101AB000C4500433C4188C42F9D3094A094C00239A
:101AC00001E013600432A242FBD303F007F9FFF7F1
:101AD000CBFA704700000020C40600207898000868
:101AE000C4060020F80D0020FEE7000080B500AF1E
:101AF000084B1B68074A43F010031360032000F0F3
:101B000059FB0F2000F008F8FFF784FD002318466A
:101B100080BD00BF0020024080B582B000AF786079
:101B2000124B1A68124B1B7819464FF47A73B3FBA9
:101B3000F1F3B2FBF3F3184600F071FB0346002B00
:101B400001D001230EE07B680F2B0AD800227968B0
:101B50004FF0FF3000F039FB064A7B68136000232A
:101B600000E0012318460837BD4680BD0400002070
:101B70000C0000200800002080B400AF054B1B784B
:101B80001A46054B1B681344034A136000BFBD4649
:101B900080BC70470C000020E80A002080B400AF31
:101BA000024B1B681846BD4680BC7047E80A0020FF
:101BB00080B584B000AF7860FFF7F0FFB8607B6855
:101BC000FB60FB68B3F1FF3F05D00A4B1B781A4658
:101BD000FB681344FB6000BFFFF7E0FF0246BB68F1
:101BE000D31AFA689A42F7D800BF00BF1037BD4633
:101BF00080BD00BF0C00002080B586B000AF7860CB
:101C00000023FB7500233B610023BB600023FB60C6
:101C10007B68002B01D10123BEE07B689B68002B11
:101C20007B689B6A002B09D17B680022DA627B68A3
:101C3000002283F824207868FFF71EFD786800F002
:101C4000ABF90346FB757B689B6A03F01003002B1E
:101C500040F09980FB7D002B40F095807B689B6A6B
:101C600023F4885323F0020343F002027B689A6254
:101C70007B685A687B68DB691A437B681B7B5B0067
:101C80001343BA681343BB607B689B68B3F5807FDE
:101C900003D07B689B68012B02D14FF4807300E076
:101CA00000233A6913433B617B681B7D012B19D1EB
:101CB0007B681B7B002B09D17B689B69013B5A0326
:101CC0003B69134343F400633B610BE07B689B6A11
:101CD00043F020027B689A627B68DB6A43F0010272
:101CE0007B68DA627B681B685B6823F469417B6808
:101CF0001B683A690A435A607B681B689A68284BDC
:101D000013407A681268B9680B4393607B689B68DC
:101D1000B3F5807F03D07B689B68012B04D17B687F
:101D20001B69013B1B05FB607B681B68DB6A23F4B6
:101D300070017B681B68FA680A43DA627B681B687B
:101D40009A68184B1340BA689A420BD17B680022FC
:101D5000DA627B689B6A23F0030343F001027B682D
:101D60009A6218E07B689B6A23F0120343F010022A
:101D70007B689A627B68DB6A43F001027B68DA6207
:101D80000123FB7507E07B689B6A43F010027B68C8
:101D90009A620123FB75FB7D18461837BD4680BD4E
:101DA000FDF7E1FFFE0E1FFF80B485B000AF786045
:101DB00039600023FB730023BB607B6893F82430F9
:101DC000012B01D10223DCE07B68012283F824206F
:101DD0003B685B68062B1CD87B681B68596B3B68AB
:101DE0005A6813469B001344053B1F2202FA03F373
:101DF000DB4319403B6818683B685A6813469B00F0
:101E00001344053B00FA03F27B681B680A435A63DC
:101E10003CE03B685B680C2B1CD87B681B68196B2B
:101E20003B685A6813469B001344233B1F2202FA67
:101E300003F3DB4319403B6818683B685A68134654
:101E40009B001344233B00FA03F27B681B680A43A0
:101E50001A631BE07B681B68D96A3B685A681346A3
:101E60009B001344413B1F2202FA03F3DB4319405A
:101E70003B6818683B685A6813469B001344413B13
:101E800000FA03F27B681B680A43DA623B681B684E
:101E9000092B1CD97B681B68D9683B681A681346F4
:101EA0005B0013441E3B072202FA03F3DB43194095
:101EB0003B6898683B681A6813465B0013441E3BF6
:101EC00000FA03F27B681B680A43DA6019E07B685A
:101ED0001B6819693B681A6813465B0013440722A4
:101EE00002FA03F3DB4319403B6898683B681A68C1
:101EF00013465B00134400FA03F27B681B680A4335
:101F00001A613B681B68102B03D03B681B68112BC0
:101F100032D17B681B681D4A934225D17B681B68C0
:101F20009B6803F40003002B26D17B681B689A682A
:101F30007B681B6842F400029A603B681B68102BA8
:101F40001AD1134B1B68134AA2FB03239A0C1346A6
:101F50009B0013445B00BB6002E0BB68013BBB60BD
:101F6000BB68002BF9D107E07B689B6A43F0200235
:101F70007B689A620123FB737B68002283F824202C
:101F8000FB7B18461437BD4680BC704700240140D7
:101F90000400002083DE1B4380B584B000AF78606E
:101FA0000023FB607B681B689B6803F00103012B27
:101FB0002ED17B681B689A687B681B6822F001023F
:101FC0009A60FFF7EBFDF8601BE0FFF7E7FD0246C4
:101FD000FB68D31A022B14D97B681B689B6803F03B
:101FE0000103012B0DD17B689B6A43F010027B68D3
:101FF0009A627B68DB6A43F001027B68DA62012344
:1020000007E07B681B689B6803F00103012BDCD0B1
:10201000002318461037BD4680BD000080B485B04F
:1020200000AF78607B6803F00703FB600C4BDB6854
:10203000BB60BA684FF6FF031340BB60FB681A022F
:10204000BB68134343F0BF6343F40033BB60044AEF
:10205000BB68D36000BF1437BD4680BC704700BF6B
:1020600000ED00E080B400AF044BDB681B0A03F016
:1020700007031846BD4680BC704700BF00ED00E076
:1020800080B483B000AF0346FB7197F90730002B93
:102090000BDBFB7903F01F02064997F907305B0958
:1020A000012000FA02F241F8232000BF0C37BD46A0
:1020B00080BC704700E100E080B483B000AF03460D
:1020C0003960FB7197F90730002B0ADB3B68DAB205
:1020D0000C4997F907301201D2B20B4483F8002360
:1020E0000AE03B68DAB20849FB7903F00F03043BCE
:1020F0001201D2B20B441A7600BF0C37BD4680BC29
:10210000704700BF00E100E000ED00E080B489B05E
:1021100000AFF860B9607A60FB6803F00703FB6109
:10212000FB69C3F10703042B28BF0423BB61FB69D0
:102130000433062B02D9FB69033B00E000237B61DB
:102140004FF0FF32BB6902FA03F3DA43BB681A406F
:102150007B699A404FF0FF317B6901FA03F3D94361
:102160007B680B40134318462437BD4680BC70473C
:1021700080B582B000AF78607B68013BB3F1807FAF
:1021800001D301230FE00A4A7B68013B53600F2112
:102190004FF0FF30FFF790FF054B00229A60044B91
:1021A00007221A60002318460837BD4680BD00BFCD
:1021B00010E000E080B582B000AF78607868FFF78B
:1021C0002DFF00BF0837BD4680BD80B586B000AF8B
:1021D0000346B9607A60FB7300237B61FFF742FF1F
:1021E00078617A68B9687869FFF790FF024697F9D5
:1021F0000F3011461846FFF75FFF00BF1837BD4686
:1022000080BD80B582B000AF0346FB7197F90730FF
:102210001846FFF735FF00BF0837BD4680BD80B5C3
:1022200082B000AF78607868FFF7A2FF03461846D7
:102230000837BD4680BD000080B485B000AF78602F
:102240000023FB607B68002B01D1012343E07B6806
:102250001B681A46224B1344224AA2FB03231B0984
:102260009A007B681A647B681F4ADA637B680222E3
:1022700083F821207B681B681B68FB60FB6823F4E4
:102280007F5323F03003FB607B685A687B689B6850
:102290001A437B68DB681A437B681B691A437B68B7
:1022A0005B691A437B689B691A437B68DB6913434C
:1022B000FA681343FB607B681B68FA681A607B68E6
:1022C00000229A637B68012283F821207B68002228
:1022D00083F82020002318461437BD4680BC704781
:1022E000F8FFFDBFCDCCCCCC0000024080B584B05F
:1022F00000AF78607B68DB6B1B68FB607B681B68EA
:102300001B68BB607B681B6C04229A40FB6813400F
:10231000002B4FD0BB6803F00403002B4AD07B682E
:102320001B681B6803F02003002B07D17B681B6828
:102330001A687B681B6822F004021A607B681B68BD
:10234000664A934229D07B681B68654A934222D033
:102350007B681B68634A93421AD07B681B68624A99
:10236000934212D07B681B68604A93420AD07B6814
:102370001B685F4A934202D14FF480030EE04FF096
:1023800080630BE04FF4802308E04FF4804305E0C6
:102390004FF4806302E0402300E00423554A536079
:1023A0007B68DB6A002B00F094807B68DB6A7868CE
:1023B00098478EE07B681B6C02229A40FB681340B2
:1023C000002B56D0BB6803F00203002B51D07B6872
:1023D0001B681B6803F02003002B0BD17B681B6874
:1023E0001A687B681B6822F00A021A607B68012267
:1023F00083F821207B681B68384A934229D07B6888
:102400001B68374A934222D07B681B68354A934247
:102410001AD07B681B68344A934212D07B681B68D1
:10242000324A93420AD07B681B68314A934202D1F8
:102430004FF400130EE04FF000730BE04FF4003345
:1024400008E04FF4005305E04FF4007302E020234E
:1024500000E00223274A53607B68002283F8202093
:102460007B689B6A002B34D07B689B6A78689847AE
:102470002FE07B681B6C08229A40FB681340002BFE
:1024800028D0BB6803F00803002B23D07B681B68AF
:102490001A687B681B6822F00E021A607B681A6C4F
:1024A0007B68DB6B012101FA02F25A607B68012232
:1024B0009A637B68012283F821207B68002283F8DD
:1024C00020207B681B6B002B04D07B681B6B78681B
:1024D000984700BF00BF1037BD4680BD08000240CE
:1024E0001C000240300002404400024058000240FC
:1024F0006C0002400000024080B48BB000AF7860F6
:10250000396000237B6200233B6269E101227B6A20
:1025100002FA03F3FB613B681B68FA691340BB6175
:10252000BA69FB699A4240F058813B685B689A4AF5
:1025300093425ED0984A934275D8984A934258D0B5
:10254000964A93426FD8964A934252D0944A934205
:1025500069D8944A93424CD0924A934263D8924AA3
:10256000934246D0904A93425DD8122B2AD8122B20
:1025700059D801A252F823F0F3250008CD25000810
:10258000DF25000821260008272600082726000846
:1025900027260008272600082726000827260008E7
:1025A00027260008272600082726000827260008D7
:1025B000272600082726000827260008D52500081A
:1025C000E9250008794A934213D02CE03B68DB6888
:1025D0003B6229E03B68DB6804333B6224E03B68F4
:1025E000DB6808333B621FE03B68DB680C333B620F
:1025F0001AE03B689B68002B02D104233B6213E086
:102600003B689B68012B05D108233B627B68FA6914
:102610001A6109E008233B627B68FA695A6103E0AA
:1026200000233B6200E000BFBB69FF2B01D87B6841
:1026300001E07B6804337B61BB69FF2B02D87B6AB6
:102640009B0002E07B6A083B9B003B617B691A6848
:102650000F213B6901FA03F3DB431A40396A3B69F6
:1026600001FA03F31A437B691A603B685B6803F065
:102670008053002B00F0B1804D4B9B694C4A43F0D6
:10268000010393614A4B9B6903F00103BB60BB6884
:10269000484A7B6A9B08023352F82330FB607B6A0E
:1026A00003F003039B000F2202FA03F3DB43FA68F3
:1026B0001340FB607B68404A934213D07B683F4ADB
:1026C00093420DD07B683E4A934207D07B683D4AD7
:1026D000934201D1032306E0042304E0022302E035
:1026E000012300E000237A6A02F003029200934083
:1026F000FA681343FB602F497B6A9B080233FA6830
:1027000041F823203B685B6803F48013002B06D05C
:102710002D4B9A682C49BB6913438B6006E02A4B0A
:102720009A68BB69DB43284913408B603B685B6850
:1027300003F40013002B06D0234BDA682249BB694F
:102740001343CB6006E0204BDA68BB69DB431E49CC
:102750001340CB603B685B6803F40033002B06D06A
:10276000194B5A681849BB6913434B6006E0164B76
:102770005A68BB69DB43144913404B603B685B6894
:1027800003F48033002B21D00F4B1A680E49BB692C
:1027900013430B6021E000BF000032100000311035
:1027A0000000221000002110000012100000111083
:1027B000001002400000014000080140000C0140F0
:1027C0000010014000140140000401400B4B1A6846
:1027D000BB69DB43094913400B607B6A01337B62B1
:1027E0003B681A687B6A22FA03F3002B7FF48EAEF3
:1027F00000BF00BF2C37BD4680BC704700040140BD
:1028000080B483B000AF78600B467B8013467B704A
:102810007B78002B03D07A887B681A6103E07B8881
:102820001A047B681A6100BF0C37BD4680BC704734
:1028300080B582B000AF0346FB80084B5A69FB8825
:102840001340002B06D0054AFB885361FB881846CD
:10285000FEF7BEFE00BF0837BD4680BD0004014044
:1028600080B584B000AF78607B68002B01D1012374
:102870002BE17B6893F83D30DBB2002B06D17B68FF
:10288000002283F83C207868FEF75EFF7B682422F4
:1028900083F83D207B681B681A687B681B6822F000
:1028A00001021A607B681B681A687B681B6842F427
:1028B00000421A607B681B681A687B681B6822F4F8
:1028C00000421A6001F032F9F8607B685B68814A67
:1028D000934207D8FB68804A934294BF01230023A8
:1028E000DBB206E0FB687D4A934294BF01230023DC
:1028F000DBB2002B01D00123E7E0FB68784AA2FBA2
:1029000003239B0CBB607B681B685B6823F03F0163
:102910007B681B68BA680A435A607B681B681B6A3D
:1029200023F03F017B685B686A4A934202D8BB6828
:10293000013309E0BB684FF4967202FB03F3694A66
:10294000A2FB03239B0901337A6812680B431362CD
:102950007B681B68DB6923F44F4222F0FF027B682F
:102960005B685C498B4219D8FB68591E7B685B68C1
:102970005B00B1FBF3F3591C40F6FC730B40002BDA
:102980000AD0FB68591E7B685B685B00B1FBF3F300
:102990000133C3F30B0351E004234FE07B689B68D2
:1029A000002B11D1FB68581E7B6859680B465B00F1
:1029B0000B44B0FBF3F30133C3F30B03002B0CBF49
:1029C00001230023DBB212E0FB68581E7B685968C4
:1029D0000B469B000B4499000B44B0FBF3F301330F
:1029E000C3F30B03002B0CBF01230023DBB2002B2E
:1029F00001D0012322E07B689B68002B0ED1FB688D
:102A0000581E7B6859680B465B000B44B0FBF3F320
:102A10000133C3F30B0343F400430FE0FB68581E7C
:102A20007B6859680B469B000B4499000B44B0FB34
:102A3000F3F30133C3F30B0343F4404379680968AC
:102A40001343CB617B681B681B6823F0C0017B6864
:102A5000DA697B681B6A1A437B681B680A431A6041
:102A60007B681B689B6823F4034323F0FF037A68A9
:102A700011697A68D26811437A6812680B439360CF
:102A80007B681B68DB6823F0FF017B685A697B6801
:102A90009B691A437B681B680A43DA607B681B6882
:102AA0001A687B681B6842F001021A607B6800228A
:102AB0001A647B68202283F83D207B6800221A6319
:102AC0007B68002283F83E20002318461037BD465D
:102AD00080BD00BFA08601007F841E00FF083D006E
:102AE00083DE1B43D34D621080B588B002AFF8601F
:102AF0007A601A460B467B8113463B81FFF74EF8FE
:102B00007861FB6893F83D30DBB2202B40F0E08029
:102B10007B690093192301227049F86800F064F979
:102B20000346002B01D00223D3E0FB6893F83C302E
:102B3000012B01D10223CCE0FB68012283F83C2069
:102B4000FB681B681B6803F00103012B07D0FB68BF
:102B50001B681A68FB681B6842F001021A60FB6878
:102B60001B681A68FB681B6822F400621A60FB6825
:102B7000212283F83D20FB68102283F83E20FB6869
:102B800000221A64FB687A685A62FB683A895A859F
:102B9000FB685B8D9AB2FB681A85FB68504ADA6263
:102BA00079897B693A6AF86800F09CF80346002B43
:102BB00001D001238DE000233B61FB681B685B694A
:102BC0003B61FB681B689B693B613B6966E07A6916
:102BD000396AF86800F022FA0346002B0DD0FB6832
:102BE0001B6C042B07D1FB681B681A68FB681B6809
:102BF00042F400721A6001236BE0FB685B6A1A788A
:102C0000FB681B681A61FB685B6A5A1CFB685A62A6
:102C1000FB685B8D9BB2013B9AB2FB685A85FB68EF
:102C20001B8D013B9AB2FB681A85FB681B685B69C8
:102C300003F00403042B1BD1FB681B8D002B17D062
:102C4000FB685B6A1A78FB681B681A61FB685B6A41
:102C50005A1CFB685A62FB685B8D9BB2013B9AB2BF
:102C6000FB685A85FB681B8D013B9AB2FB681A858D
:102C70007A69396AF86800F019FA0346002B0DD01A
:102C8000FB681B6C042B07D1FB681B681A68FB6888
:102C90001B6842F400721A6001231AE0FB681B8D66
:102CA000002B94D1FB681B681A68FB681B6842F410
:102CB00000721A60FB68202283F83D20FB68002226
:102CC00083F83E20FB68002283F83C20002300E0CC
:102CD000022318461837BD4680BD00BF0200100011
:102CE0000000FFFF80B588B002AFF8607A603B60FB
:102CF0000B467B81FB68DB6A7B617B69082B06D016
:102D00007B69012B03D07B6913F5803F08D1FB68F9
:102D10001B681A68FB681B6842F480721A600BE03B
:102D2000FB681B6B122B07D1FB681B681A68FB68DA
:102D30001B6842F480721A603B6800937B68002233
:102D40004FF00111F86800F04FF80346002B0DD04A
:102D5000FB681B681B6803F48073B3F5807F03D1A5
:102D6000FB684FF400721A64032335E0FB681B69AB
:102D7000B3F5804F08D17B89DBB21A46FB681B682C
:102D800002F0FE021A611BE07B89DB11DBB203F06B
:102D90000603DBB263F00F03DAB2FB681B681A614B
:102DA0003B687A680E49F86800F098F80346002BF3
:102DB00001D0012310E07B89DAB2FB681B681A613D
:102DC0003B687A680749F86800F088F80346002BEA
:102DD00001D0012300E0002318461837BD4680BD0E
:102DE000080001000200010080B584B000AFF86067
:102DF000B9603B601346FB7148E03B68B3F1FF3FAD
:102E000044D0FEF7CBFE0246BB69D31A3A689A4219
:102E100002D33B68002B39D1BB681B0CDBB2012B02
:102E20000DD1FB681B685B69DA43BB6813409BB23A
:102E3000002B0CBF01230023DBB21A460CE0FB6819
:102E40001B689B69DA43BB6813409BB2002B0CBF25
:102E500001230023DBB21A46FB799A4216D1FB68A4
:102E600000221A63FB68202283F83D20FB680022C1
:102E700083F83E20FB681B6C43F02002FB681A6459
:102E8000FB68002283F83C20012323E0BB681B0C75
:102E9000DBB2012B0DD1FB681B685B69DA43BB68B1
:102EA00013409BB2002B0CBF01230023DBB21A4658
:102EB0000CE0FB681B689B69DA43BB6813409BB25C
:102EC000002B0CBF01230023DBB21A46FB799A4288
:102ED00093D0002318461037BD4680BD80B584B01E
:102EE00000AFF860B9607A603B6071E0FB681B6816
:102EF0005B6903F48063B3F5806F23D1FB681B68C3
:102F00001A68FB681B6842F400721A60FB681B6851
:102F10006FF480625A61FB6800221A63FB6820220A
:102F200083F83D20FB68002283F83E20FB681B6C81
:102F300043F00402FB681A64FB68002283F83C201B
:102F4000012367E07B68B3F1FF3F41D0FEF726FE27
:102F500002463B68D31A7A689A4202D37B68002BF8
:102F600036D1BB681B0CDBB2012B0CD1FB681B6894
:102F70005B69DA43BB6813409BB2002B14BF01238B
:102F80000023DBB20BE0FB681B689B69DA43BB687C
:102F900013409BB2002B14BF01230023DBB2002B94
:102FA00016D0FB6800221A63FB68202283F83D20BC
:102FB000FB68002283F83E20FB681B6C43F0200274
:102FC000FB681A64FB68002283F83C20012321E09F
:102FD000BB681B0CDBB2012B0CD1FB681B685B6967
:102FE000DA43BB6813409BB2002B14BF01230023BC
:102FF000DBB20BE0FB681B689B69DA43BB681340DC
:103000009BB2002B14BF01230023DBB2002B7FF403
:103010006DAF002318461037BD4680BD80B584B023
:1030200000AFF860B9607A6034E0F86800F086F8C4
:103030000346002B01D0012334E0BB68B3F1FF3F0E
:1030400028D0FEF7ABFD02467B68D31ABA689A42D5
:1030500002D3BB68002B1DD1FB681B685B6903F0C2
:103060008003802B16D0FB6800221A63FB682022A5
:1030700083F83D20FB68002283F83E20FB681B6C30
:1030800043F02002FB681A64FB68002283F83C20AE
:10309000012307E0FB681B685B6903F08003802B5A
:1030A000C3D1002318461037BD4680BD80B584B01B
:1030B00000AFF860B9607A6034E0F86800F03EF87C
:1030C0000346002B01D0012334E0BB68B3F1FF3F7E
:1030D00028D0FEF763FD02467B68D31ABA689A428D
:1030E00002D3BB68002B1DD1FB681B685B6903F032
:1030F0000403042B16D0FB6800221A63FB6820220D
:1031000083F83D20FB68002283F83E20FB681B6C9F
:1031100043F02002FB681A64FB68002283F83C201D
:10312000012307E0FB681B685B6903F00403042BC1
:10313000C3D1002318461037BD4680BD80B483B08C
:1031400000AF78607B681B685B6903F48063B3F54C
:10315000806F1BD17B681B686FF480625A617B684B
:1031600000221A637B68202283F83D207B680022BE
:1031700083F83E207B681B6C43F004027B681A6472
:103180007B68002283F83C20012300E000231846DE
:103190000C37BD4680BC7047F0B58BB006AF786089
:1031A0007B68002B01D10123F1E07B6893F8A93201
:1031B000DBB2002B06D17B68002283F8A822786856
:1031C000FEF752FB7B68032283F8A9227B681B6809
:1031D000184601F0CAFB7B681B683B607E686D4641
:1031E00006F110040FCC0FC523682B60331D0ECBE6
:1031F000386801F0AAFB0346002B05D07B68022249
:1032000083F8A9220123C2E07B681B6800211846CD
:1032100001F0C5FB0023FB7340E0FB7B79685A1C7F
:1032200013469B001344DB000B44013301221A7048
:10323000FB7B79685A1C13469B001344DB000B444C
:10324000FA7B1A70FB7B79685A1C13469B00134467
:10325000DB000B44033300221A70FA7B79681346B3
:103260009B001344DB000B44383300221A60FA7BC6
:10327000796813469B001344DB000B443C33002267
:103280001A60FA7B796813469B001344DB000B44F9
:10329000403300221A60FB7B0133FB73FA7B7B68AF
:1032A0005B689A42B9D30023FB7344E0FA7B7968E8
:1032B00013469B001344DB000B4403F26913002206
:1032C0001A70FA7B796813469B001344DB000B44A9
:1032D00003F5B473FA7B1A70FA7B796813469B0086
:1032E0001344DB000B4403F26B1300221A70FA7BC9
:1032F000796813469B001344DB000B4403F5BC7351
:1033000000221A60FA7B796813469B001344DB00A5
:103310000B4403F5BE7300221A60FA7B79681346EA
:103320009B001344DB000B4403F5C07300221A60BA
:10333000FB7B0133FB73FA7B7B685B689A42B5D3F6
:103340007B681B683B607E686D4606F110040FCCFD
:103350000FC523682B60331D0ECB386801F02BFBA3
:103360000346002B05D07B68022283F8A9220123A3
:103370000DE07B68002283F824207B68012283F81B
:10338000A9227B681B68184601F035FB002318460C
:103390001437BD46F0BD000080B586B000AF786040
:1033A0007B68002B01D1012372E27B681B6803F06C
:1033B0000103002B00F08780924B5B6803F00C0345
:1033C000042B0CD08F4B5B6803F00C03082B12D13D
:1033D0008C4B5B6803F48033B3F5803F0BD1894B92
:1033E0001B6803F40033002B6CD07B685B68002BF8
:1033F00068D101234CE27B685B68B3F5803F06D15E
:10340000804B1B687F4A43F4803313602EE07B6857
:103410005B68002B0CD17B4B1B687A4A23F480330A
:103420001360784B1B68774A23F4802313601DE0F8
:103430007B685B68B3F5A02F0CD1724B1B68714A97
:1034400043F4802313606F4B1B686E4A43F4803350
:1034500013600BE06B4B1B686A4A23F480331360E4
:10346000684B1B68674A23F4802313607B685B68A2
:10347000002B13D0FEF792FB386108E0FEF78EFBBD
:1034800002463B69D31A642B01D9032300E25D4B4A
:103490001B6803F40033002BF0D014E0FEF77EFB32
:1034A000386108E0FEF77AFB02463B69D31A642BC9
:1034B00001D90323ECE1534B1B6803F40033002BC9
:1034C000F0D100E000BF7B681B6803F00203002B13
:1034D00063D04C4B5B6803F00C03002B0BD0494BC3
:1034E0005B6803F00C03082B1CD1464B5B6803F4AC
:1034F0008033002B16D1434B1B6803F00203002BD3
:1035000005D07B681B69012B01D00123C0E13D4B35
:103510001B6823F0F8027B685B69DB0039491343C1
:103520000B603AE07B681B69002B20D0364B0122F0
:103530001A60FEF733FB386108E0FEF72FFB024606
:103540003B69D31A022B01D90323A1E12D4B1B6840
:1035500003F00203002BF0D02A4B1B6823F0F80283
:103560007B685B69DB00274913430B6015E0264B42
:1035700000221A60FEF712FB386108E0FEF70EFB2E
:1035800002463B69D31A022B01D9032380E11D4B6C
:103590001B6803F00203002BF0D17B681B6803F06B
:1035A0000803002B3AD07B689B69002B19D0174B7E
:1035B00001221A60FEF7F2FA386108E0FEF7EEFA2F
:1035C00002463B69D31A022B01D9032360E10D4B5C
:1035D0005B6A03F00203002BF0D0012000F0BAFA7E
:1035E0001CE00A4B00221A60FEF7D8FA38610FE09F
:1035F000FEF7D4FA02463B69D31A022B08D90323FB
:1036000046E100BF001002400000424280044242F6
:10361000924B5B6A03F00203002BE9D17B681B68C5
:1036200003F00403002B00F0A6800023FB758B4BF6
:10363000DB6903F08053002B0DD1884BDB69874A8F
:1036400043F08053D361854BDB6903F08053BB604B
:10365000BB680123FB75824B1B6803F48073002B4E
:1036600018D17F4B1B687E4A43F480731360FEF7CA
:1036700095FA386108E0FEF791FA02463B69D31AE1
:10368000642B01D9032303E1754B1B6803F480739A
:10369000002BF0D07B68DB68012B06D16F4B1B6AD7
:1036A0006E4A43F0010313622DE07B68DB68002B58
:1036B0000CD16A4B1B6A694A23F001031362674B02
:1036C0001B6A664A23F0040313621CE07B68DB6814
:1036D000052B0CD1614B1B6A604A43F00403136253
:1036E0005E4B1B6A5D4A43F0010313620BE05B4BC8
:1036F0001B6A5A4A23F001031362584B1B6A574A4C
:1037000023F0040313627B68DB68002B15D0FEF7FF
:1037100045FA38610AE0FEF741FA02463B69D31ADE
:1037200041F28832934201D90323B1E04B4B1B6A2B
:1037300003F00203002BEED014E0FEF72FFA3861FD
:103740000AE0FEF72BFA02463B69D31A41F28832AF
:10375000934201D903239BE0404B1B6A03F0020311
:10376000002BEED1FB7D012B05D13C4BDB693B4AA5
:1037700023F08053D3617B68DB69002B00F08780E6
:10378000364B5B6803F00C03082B61D07B68DB6968
:10379000022B46D1334B00221A60FEF7FFF9386145
:1037A00008E0FEF7FBF902463B69D31A022B01D968
:1037B00003236DE0294B1B6803F00073002BF0D14D
:1037C0007B681B6AB3F5803F08D1244B5B6823F408
:1037D00000327B689B68214913434B601F4B5B6839
:1037E00023F474127B68196A7B685B6A0B431B497C
:1037F00013434B601B4B01221A60FEF7CFF938616F
:1038000008E0FEF7CBF902463B69D31A022B01D937
:1038100003233DE0114B1B6803F00073002BF0D035
:1038200035E0104B00221A60FEF7B8F9386108E065
:10383000FEF7B4F902463B69D31A022B01D90323E0
:1038400026E0064B1B6803F00073002BF0D11EE04E
:103850007B68DB69012B07D1012319E000100240CE
:1038600000700040600042420B4B5B68FB60FB68ED
:1038700003F480327B681B6A9A4206D1FB6803F42A
:1038800070127B685B6A9A4201D0012300E000233A
:1038900018461837BD4680BD0010024080B584B080
:1038A00000AF786039607B68002B01D10123D0E044
:1038B0006A4B1B6803F007033A689A4210D9674BBA
:1038C0001B6823F0070265493B6813430B60634B99
:1038D0001B6803F007033A689A4201D00123B8E05D
:1038E0007B681B6803F00203002B20D07B681B68F9
:1038F00003F00403002B05D0594B5B68584A43F48E
:10390000E06353607B681B6803F00803002B05D05D
:10391000534B5B68524A43F460535360504B5B68AF
:1039200023F0F0027B689B684D4913434B607B6832
:103930001B6803F00103002B40D07B685B68012B00
:1039400007D1474B1B6803F40033002B15D101232B
:103950007FE07B685B68022B07D1414B1B6803F05B
:103960000073002B09D1012373E03D4B1B6803F06A
:103970000203002B01D101236BE0394B5B6823F07C
:1039800003027B685B68364913434B60FEF706F918
:10399000F8600AE0FEF702F90246FB68D31A41F22A
:1039A0008832934201D9032353E02D4B5B6803F027
:1039B0000C027B685B689B009A42EBD1274B1B682B
:1039C00003F007033A689A4210D2244B1B6823F095
:1039D000070222493B6813430B60204B1B6803F02E
:1039E00007033A689A4201D0012332E07B681B68E2
:1039F00003F00403002B08D0194B5B6823F4E0624A
:103A00007B68DB68164913434B607B681B6803F0D7
:103A10000803002B09D0124B5B6823F460527B68CB
:103A20001B69DB000E4913434B6000F021F802468E
:103A30000B4B5B681B0903F00F030A49CB5C22FAAE
:103A400003F3094A1360094B1B681846FEF764F834
:103A5000002318461037BD4680BD00BF002002403D
:103A600000100240AC940008040000200800002070
:103A700080B487B000AF0023FB600023BB6000234D
:103A80007B6100237B6000233B611E4B5B68FB6016
:103A9000FB6803F00C03042B02D0082B03D027E0B3
:103AA000194B3B6127E0FB689B0C03F00F03174A9F
:103AB000D35C7B60FB6803F48033002B10D0114B88
:103AC0005B685B0C03F00103114AD35CBB607B684D
:103AD0000D4A03FB02F2BB68B2FBF3F37B6104E027
:103AE0007B680C4A02FB03F37B617B693B6102E06C
:103AF000054B3B6100BF3B6918461C37BD4680BC87
:103B0000704700BF0010024000127A00C494000801
:103B1000D494000800093D0080B400AF024B1B683C
:103B20001846BD4680BC70470400002080B500AF39
:103B3000FFF7F2FF0246054B5B681B0A03F0070321
:103B40000349CB5C22FA03F3184680BD0010024003
:103B5000BC94000880B485B000AF78600A4B1B6845
:103B60000A4AA2FB03235B0A7A6802FB03F3FB60A9
:103B700000BFFB685A1EFA60002BF9D100BF00BFDE
:103B80001437BD4680BC704704000020D34D62103E
:103B900080B586B000AF786000233B610023FB60F6
:103BA0007B681B6803F00103002B7DD00023FB75AD
:103BB0004F4BDB6903F08053002B0DD14C4BDB697D
:103BC0004B4A43F08053D361494BDB6903F0805388
:103BD000BB60BB680123FB75464B1B6803F4807315
:103BE000002B18D1434B1B68424A43F48073136087
:103BF000FDF7D4FF386108E0FDF7D0FF02463B69CE
:103C0000D31A642B01D903236DE03A4B1B6803F4EC
:103C10008073002BF0D0364B1B6A03F44073FB60BB
:103C2000FB68002B2ED07B685B6803F44073FA6856
:103C30009A4227D02E4B1B6A23F44073FB602E4B15
:103C400001221A602C4B00221A60294AFB68136279
:103C5000FB6803F00103002B14D0FDF79FFF3861D0
:103C60000AE0FDF79BFF02463B69D31A41F2883216
:103C7000934201D9032336E01D4B1B6A03F0020374
:103C8000002BEED01A4B1B6A23F440727B685B68F2
:103C9000174913430B62FB7D012B05D1144BDB69E4
:103CA000134A23F08053D3617B681B6803F002033F
:103CB000002B08D00E4B5B6823F440427B689B6866
:103CC0000B4913434B607B681B6803F01003002B08
:103CD00008D0074B5B6823F480027B68DB680449EB
:103CE00013434B60002318461837BD4680BD00BF04
:103CF00000100240007000404004424280B582B093
:103D000000AF78607B68002B01D1012341E07B6824
:103D100093F83D30DBB2002B06D17B68002283F89C
:103D20003C207868FDF74EFD7B68022283F83D2039
:103D30007B681A687B6804331946104600F0B2FAB3
:103D40007B68012283F846207B68012283F83E20AD
:103D50007B68012283F83F207B68012283F84020A2
:103D60007B68012283F841207B68012283F842208E
:103D70007B68012283F843207B68012283F844207A
:103D80007B68012283F845207B68012283F83D206F
:103D9000002318460837BD4680BD80B582B000AF0D
:103DA00078607B68002B01D1012341E07B6893F8A8
:103DB0003D30DBB2002B06D17B68002283F83C202B
:103DC000786800F039F87B68022283F83D207B6830
:103DD0001A687B6804331946104600F063FA7B6862
:103DE000012283F846207B68012283F83E207B680D
:103DF000012283F83F207B68012283F840207B6802
:103E0000012283F841207B68012283F842207B68ED
:103E1000012283F843207B68012283F844207B68D9
:103E2000012283F845207B68012283F83D2000238E
:103E300018460837BD4680BD80B483B000AF7860B7
:103E400000BF0C37BD4680BC7047000080B584B011
:103E500000AF786039603B68002B09D17B6893F82C
:103E60003E30DBB2012B14BF01230023DBB222E082
:103E70003B68042B09D17B6893F83F30DBB2012B00
:103E800014BF01230023DBB215E03B68082B09D1E6
:103E90007B6893F84030DBB2012B14BF0123002371
:103EA000DBB208E07B6893F84130DBB2012B14BF32
:103EB00001230023DBB2002B01D001235EE03B682D
:103EC000002B04D17B68022283F83E2013E03B687C
:103ED000042B04D17B68022283F83F200BE03B686F
:103EE000082B04D17B68022283F8402003E07B6822
:103EF000022283F841207B681B680122396818463A
:103F000000F050FC7B681B681E4A934207D17B6817
:103F10001B685A6C7B681B6842F400425A647B68D9
:103F20001B68184A93420ED07B681B68B3F1804F20
:103F300009D07B681B68144A934204D07B681B68D5
:103F4000124A934211D17B681B689B6803F00703F8
:103F5000FB60FB68062B10D07B681B681A687B68C7
:103F60001B6842F001021A6007E07B681B681A6850
:103F70007B681B6842F001021A6000231846103764
:103F8000BD4680BD002C01400004004000080040F8
:103F900080B586B000AFF860B9607A600023FB7529
:103FA000FB6893F83C30012B01D10223AEE0FB68A3
:103FB000012283F83C207B680C2B00F29F8001A239
:103FC00052F823F0F93F0008FD400008FD400008CA
:103FD000FD40000839400008FD400008FD40000891
:103FE000FD4000087B400008FD400008FD4000083F
:103FF000FD400008BB400008FB681B68B968184614
:1040000000F0B2F9FB681B689A69FB681B6842F014
:1040100008029A61FB681B689A69FB681B6822F0BA
:1040200004029A61FB681B689969BB681A69FB689E
:104030001B680A439A6164E0FB681B68B96818460C
:1040400000F0F8F9FB681B689A69FB681B6842F48A
:1040500000629A61FB681B689A69FB681B6822F41E
:1040600080629A61FB681B689969BB681B691A02C8
:10407000FB681B680A439A6143E0FB681B68B968E8
:10408000184600F041FAFB681B68DA69FB681B6898
:1040900042F00802DA61FB681B68DA69FB681B689A
:1040A00022F00402DA61FB681B68D969BB681A69EF
:1040B000FB681B680A43DA6123E0FB681B68B96888
:1040C000184600F08BFAFB681B68DA69FB681B680E
:1040D00042F40062DA61FB681B68DA69FB681B68FE
:1040E00022F48062DA61FB681B68D969BB681B69CE
:1040F0001A02FB681B680A43DA6102E00123FB75C0
:1041000000BFFB68002283F83C20FB7D184618376F
:10411000BD4680BD80B584B000AF786039600023B3
:10412000FB737B6893F83C30012B01D10223B4E090
:104130007B68012283F83C207B68022283F83D20C3
:104140007B681B689B68BB60BB6823F07703BB6020
:10415000BB6823F47F43BB607B681B68BA689A60C6
:104160003B681B68B3F5005F3ED0B3F5005F00F21B
:104170008780B3F5805F00F08680B3F5805F7FD8DD
:10418000702B1AD0702B7BD8602B50D0602B77D837
:10419000502B3CD0502B73D8402B58D0402B6FD88D
:1041A000302B64D0302B6BD8202B60D0202B67D8DD
:1041B000002B5CD0102B5AD062E07B6818683B68FB
:1041C00099683B685A683B68DB6800F0CCFA7B680A
:1041D0001B689B68BB60BB6843F07703BB607B6870
:1041E0001B68BA689A604FE07B6818683B689968FA
:1041F0003B685A683B68DB6800F0B5FA7B681B686F
:104200009A687B681B6842F480429A603CE07B6855
:1042100018683B6859683B68DB681A4600F02CFA5E
:104220007B681B685021184600F083FA2CE07B68FD
:1042300018683B6859683B68DB681A4600F04AFA20
:104240007B681B686021184600F073FA1CE07B68ED
:1042500018683B6859683B68DB681A4600F00CFA3E
:104260007B681B684021184600F063FA0CE07B680D
:104270001A683B681B681946104600F05AFA03E0BA
:104280000123FB7300E000BF7B68012283F83D201F
:104290007B68002283F83C20FB7B18461037BD4624
:1042A00080BD000080B485B000AF786039607B6865
:1042B0001B68FB607B68294A93420BD07B68B3F193
:1042C000804F07D07B68264A934203D07B68254AFB
:1042D000934208D1FB6823F07003FB603B685B6886
:1042E000FA681343FB607B681C4A93420BD07B68DF
:1042F000B3F1804F07D07B68194A934203D07B68A3
:10430000184A934208D1FB6823F44073FB603B6872
:10431000DB68FA681343FB60FB6823F080023B68AC
:104320005B691343FB607B68FA681A603B689A68B4
:104330007B68DA623B681A687B689A627B68074A26
:10434000934203D13B681A697B681A637B68012238
:104350005A6100BF1437BD4680BC7047002C014035
:10436000000400400008004080B487B000AF7860CF
:1043700039607B681B6A7B617B681B6A23F00102E2
:104380007B681A627B685B683B617B689B69FB604A
:10439000FB6823F07003FB60FB6823F00303FB6002
:1043A0003B681B68FA681343FB607B6923F00203D8
:1043B0007B613B689B687A6913437B617B681C4A1D
:1043C00093420CD17B6923F008037B613B68DB6877
:1043D0007A6913437B617B6923F004037B617B680B
:1043E000134A934211D13B6923F480733B613B69CB
:1043F00023F400733B613B685B693A6913433B619B
:104400003B689B693A6913433B617B683A695A6030
:104410007B68FA689A613B685A687B685A637B6874
:104420007A691A6200BF1C37BD4680BC704700BF66
:10443000002C014080B487B000AF786039607B68A1
:104440001B6A7B617B681B6A23F010027B681A621F
:104450007B685B683B617B689B69FB60FB6823F45E
:10446000E043FB60FB6823F44073FB603B681B6820
:104470001B02FA681343FB607B6923F020037B6116
:104480003B689B681B017A6913437B617B681D4A0B
:1044900093420DD17B6923F080037B613B68DB682D
:1044A0001B017A6913437B617B6923F040037B61C5
:1044B0007B68144A934213D13B6923F480633B61C8
:1044C0003B6923F400633B613B685B699B003A698D
:1044D00013433B613B689B699B003A6913433B6113
:1044E0007B683A695A607B68FA689A613B685A68E7
:1044F0007B689A637B687A691A6200BF1C37BD4685
:1045000080BC7047002C014080B487B000AF786059
:1045100039607B681B6A7B617B681B6A23F480724D
:104520007B681A627B685B683B617B68DB69FB6068
:10453000FB6823F07003FB60FB6823F00303FB6060
:104540003B681B68FA681343FB607B6923F40073C4
:104550007B613B689B681B027A6913437B617B68C4
:104560001D4A93420DD17B6923F400637B613B6854
:10457000DB681B027A6913437B617B6923F48063E8
:104580007B617B68144A934213D13B6923F48053C7
:104590003B613B6923F400533B613B685B691B0152
:1045A0003A6913433B613B689B691B013A691343BA
:1045B0003B617B683A695A607B68FA68DA613B68FC
:1045C0005A687B68DA637B687A691A6200BF1C37B5
:1045D000BD4680BC704700BF002C014080B487B04E
:1045E00000AF786039607B681B6A3B617B681B6A3F
:1045F00023F480527B681A627B685B687B617B680E
:10460000DB69FB60FB6823F4E043FB60FB6823F499
:104610004073FB603B681B681B02FA681343FB6036
:104620003B6923F400533B613B689B681B033A6979
:1046300013433B617B680F4A934209D17B6923F4A2
:1046400080437B613B685B699B017A6913437B61B3
:104650007B687A695A607B68FA68DA613B685A68F5
:104660007B681A647B683A691A6200BF1C37BD46D2
:1046700080BC7047002C014080B487B000AFF86068
:10468000B9607A60FB681B6A7B61FB681B6A23F078
:104690000102FB681A62FB689B693B613B6923F07E
:1046A000F0033B617B681B013A6913433B617B6903
:1046B00023F00A037B617A69BB6813437B61FB6863
:1046C0003A699A61FB687A691A6200BF1C37BD4675
:1046D00080BC704780B487B000AFF860B9607A6082
:1046E000FB681B6A7B61FB681B6A23F01002FB6896
:1046F0001A62FB689B693B613B6923F470433B6131
:104700007B681B033A6913433B617B6923F0A00379
:104710007B61BB681B017A6913437B61FB683A6963
:104720009A61FB687A691A6200BF1C37BD4680BC7B
:10473000704780B485B000AF786039607B689B6853
:10474000FB60FB6823F07003FB603A68FB6813436F
:1047500043F00703FB607B68FA689A6000BF143778
:10476000BD4680BC704780B487B000AFF860B960C8
:104770007A603B60FB689B687B617B6923F47F43C5
:104780007B613B681A027B681A43BB6813437A69F2
:1047900013437B61FB687A699A6000BF1C37BD4692
:1047A00080BC704780B487B000AFF860B9607A60B1
:1047B000BB6803F01F03012202FA03F37B61FB686D
:1047C0001A6A7B69DB431A40FB681A62FB681A6A43
:1047D000BB6803F01F03796801FA03F31A43FB680F
:1047E0001A6200BF1C37BD4680BC704780B485B0DC
:1047F00000AF786039607B6893F83C30012B01D1C1
:10480000022346E07B68012283F83C207B68022279
:1048100083F83D207B681B685B68FB607B681B68D6
:104820009B68BB60FB6823F07003FB603B681B6800
:10483000FA681343FB607B681B68FA685A607B6800
:104840001B68164A93420ED07B681B68B3F1804FF9
:1048500009D07B681B68124A934204D07B681B68AE
:10486000104A93420CD1BB6823F08003BB603B68C5
:104870005B68BA681343BB607B681B68BA689A6060
:104880007B68012283F83D207B68002283F83C206E
:10489000002318461437BD4680BC7047002C0140E9
:1048A000000400400008004080B485B000AF78608C
:1048B00039600023FB607B6893F83C30012B01D109
:1048C00002233DE07B68012283F83C20FB6823F053
:1048D000FF023B68DB681343FB60FB6823F4407214
:1048E0003B689B681343FB60FB6823F480623B6872
:1048F0005B681343FB60FB6823F400623B681B6842
:104900001343FB60FB6823F480523B681B6913432D
:10491000FB60FB6823F400523B685B691343FB6058
:10492000FB6823F480423B68DB691343FB607B68D0
:104930001B68FA685A647B68002283F83C200023D5
:1049400018461437BD4680BC704784B080B483B02D
:1049500000AF786007F1140080E80E0000231846CD
:104960000C37BD4680BC04B0704780B485B000AF42
:1049700078604FF43F43FB607B68B3F840309AB2F5
:10498000FB689BB2DB439BB213409AB27B68A3F8EF
:104990004020002318461437BD4680BC704780B4C1
:1049A00083B000AF78600B46FB70002318460C37CD
:1049B000BD4680BC704784B080B483B000AF7860DF
:1049C00007F1140080E80E007B680122A3F8402064
:1049D0007B680022A3F840207B680022A3F84420D3
:1049E0007B680022A3F85020002318460C37BD46F0
:1049F00080BC04B0704780B483B000AF78600023FF
:104A000018460C37BD4680BC70470000002310B527
:104A10000446C0E90033C0E9043383608181436602
:104A2000C2818361194608225C3000F002F9054B0F
:104A3000E4612362044B6362044BA362044BE362B0
:104A400010BD00BFAD4B0008CF4B0008074C00085D
:104A50002B4C0008024A0349034800F069B800BF24
:104A6000100000209D6700082000002041680C4BCA
:104A700010B59942044601D001F090FEA168094B9F
:104A8000994202D0204601F089FEE168064B994226
:104A900004D02046BDE8104001F080BE10BD00BF2C
:104AA000EC0A0020540B0020BC0B002010B50B4B6F
:104AB0000B4C0C4A20461A6004210022FFF7A6FF87
:104AC00004F1680001220921FFF7A0FF04F1D000E2
:104AD0000222BDE810401221FFF798BF240C0020ED
:104AE000EC0A0020554A0008014800F01DB900BF3B
:104AF0002E0C0020014800F018B900BF2E0C002039
:104B000010B50446FFF7F0FF636B1BB1BDE8104022
:104B1000FFF7F0BF044B6363044B1B68002BF5D118
:104B2000FFF7C4FFF2E700BF6D4A0008240C002025
:104B30002DE9F8430746884614460026D4E9019536
:104B4000B9F1010905D52468002CF7D13046BDE83C
:104B5000F883AB89012B07D9B5F90E30013303D0A7
:104B600029463846C04706436835E9E70EB46FF07A
:104B7000004100B59CB01DAB0290069007910491D6
:104B80000848094953F8042B0591006802A90193CC
:104B900000F036FC0022029B1A701CB05DF804EB9A
:104BA00003B07047400100200802FFFF10B50C461B
:104BB000B1F90E1000F068F80028ABBF236DA3898F
:104BC0001B1823F48053ACBF2365A38110BD2DE9CE
:104BD000F0411F468B890546DB050C46164605D578
:104BE00002230022B1F90E1000F03CF8A3893246EE
:104BF00023F48053A38128463B46B4F90E10BDE848
:104C0000F04100F053B810B50C46B1F90E1000F0A9
:104C100029F8431CA38915BF206523F4805343F46E
:104C20008053A38118BFA38110BDB1F90E1000F00D
:104C300009B803460244934200D1704703F8011BB0
:104C4000F9E7000038B50023054D044608462B60FF
:104C5000FCF7BAFE431C02D12B6803B1236038BDB8
:104C6000280C002038B50446084611460022054DA0
:104C70002A601A46FCF7CCFE431C02D12B6803B114
:104C8000236038BD280C002038B50446084611467C
:104C90000022054D2A601A46FCF75DFE431C02D136
:104CA0002B6803B1236038BD280C002038B50446BA
:104CB000084611460022054D2A601A46FCF768FE98
:104CC000431C02D12B6803B1236038BD280C00209F
:104CD000014B1868704700BF4001002070B50026E6
:104CE0000C4D0D4C641BA410A64209D104F0BCFB72
:104CF00000260A4D0A4C641BA410A64205D170BDC3
:104D000055F8043B98470136EEE755F8043B9847C1
:104D10000136F2E76C9800086C9800086C9800085F
:104D2000749800087047704770477047024B13B182
:104D3000024800F005B8704700000000F96900085B
:104D4000002301461A46184601F0B8BE2DE9F0418D
:104D5000064608200C4601F063FE8046224F30468E
:104D600000F042FBBB685D6825F003052C1B113C7D
:104D70004444B4FBF8F4013C08FB04F4A04505DD11
:104D8000304600F037FB0020BDE8F08100213046BE
:104D900001F022FEBB682B449842F1D130466142BB
:104DA00001F01AFE013010D10021304601F014FE4E
:104DB000BA68831A0F2BE3DD0C4943F0010309683D
:104DC0005360401A0A490860DAE7BB68084A2D1B9D
:104DD00045F001055D60136830461B1B136000F051
:104DE00009FB0120D0E700BF48010020500500204A
:104DF000340C0020F8B505460F46002900F0B180BC
:104E000000F0F2FA57F8042C564822F00104A7F1FA
:104E1000080303EB040C8168DCF80460614526F0AC
:104E2000030602F001021BD126443AB957F8082CB8
:104E30009B1A1644D3E90212CA60916046F001023F
:104E40005A608360484B1B68B34204D8474B2846DE
:104E50001968FFF77BFF2846BDE8F84000F0CABAA2
:104E6000CCF80460002A38D157F8081C00F1080774
:104E70005B1A0C449968B94231D0DF68CF60B960E1
:104E80000CEB06014968C9070BD4DCF80810344460
:104E90003ABB374EB14224D10122C0E90433C3E901
:104EA000021144F0010159601C51002AD3D1B4F51C
:104EB000007F1BD20121E2086409A140446801324D
:104EC0002143416050F8324000EBC2010839C3E988
:104ED000024140F83230E360BDE70022D0E7012212
:104EE000CEE7DCF80C60CE60B160DAE7B4F5206F95
:104EF0004FEA542214D2A2093832511C50F8311012
:104F000000EBC2068E4225D10124921004FA02F26F
:104F1000446822434260C3E90216B360CB609AE75B
:104F2000142A01D85B32E8E7542A02D8220B6E32E9
:104F3000E3E7B2F5AA7F02D8E20B7732DDE740F271
:104F400054518A4296BFA20C7E227C32D5E78968F2
:104F50008E4204D04A6822F00302A242F7D8CE68FB
:104F6000D9E7F8BD4801002054050020640C00205A
:104F70005001002001F10B03162B2DE9F74F0546D8
:104F800006D933F0070704D50C232B600024A1E1D8
:104F90001027B942F8D8284600F026FAB7F5FC7F6A
:104FA000AE4E37D207F1080232445468A2F108012C
:104FB0008C424FEAD70302D1D468A24210D0636872
:104FC000D4E9021223F00303CA60234491605A68B3
:104FD00042F001025A60284600F00CFA083479E1E8
:104FE000023334699E498C4277D0626822F0030C08
:104FF000ACEB07000F2848DDE21940F0010347F051
:1050000001076760C6E90422C2E90211536044F84F
:105010000C00E0E77B0A2AD0042B12D8BB093833F6
:105020005A1C06EBC2025468A2F1080C644506D073
:10503000626822F00302D01B0F281CDD013B013304
:10504000CFE7142B01D85B33EAE7542B02D83B0B94
:105050006E33E5E7B3F5AA7F02D8FB0B7733DFE7C2
:1050600040F25452934204D8BB0C7C33D8E73F2320
:10507000D6E77E23D4E70028E16804DBA368D96083
:105080008B60A318A3E70C46D0E70028C6E90411FB
:1050900007DBA444DCF8043043F00103CCF804300F
:1050A00099E7BCF5007F706880F093804FEADC02DE
:1050B0004FEA5C1E4FF0010C0CFA0EFC4CEA0000AB
:1050C000013256F832C0706006EBC2000838C4E9FD
:1050D00002C046F83240CCF80C40012298108240C1
:1050E0007068904226D3104206D123F00303520089
:1050F000104203F10403FAD006EBC308C1469E46F2
:10510000D9F80C404C4540F0B7800EF1010E1EF06E
:10511000030F09F10809F3D1980740F0E1807368A3
:1051200023EA0203736070685200904202D3002A9F
:1051300040F0E280D6F808A0DAF8043023F0030942
:10514000B94504D3A9EB07020F2A00F34081454B70
:10515000082019680AEB090B10313944019101F05C
:105160005FFC414A01991368804601331FBF01F17A
:10517000FF310918434219402846019101F02CFCE7
:10518000421C044600F0F68083450199364A02D954
:10519000B24540F0EF80354BA345186808F1FF3C5D
:1051A0000844186040F0AA801BEA0C0F40F0A6806B
:1051B000B268494441F0010151602D4A1B681168F1
:1051C0008B4288BF13602B4A11688B4288BF1360E3
:1051D000D0E0BCF5206F4FEA5C2218D24FEA9C1257
:1051E000383202F1010E56F83EE006EBC208F045F7
:1051F0002BD14FF0010C92100CFA02F202437260B4
:10520000C4E902E8C8F80840CEF80C4065E7142A63
:1052100001D85B32E5E7542A03D84FEA1C326E32DC
:10522000DFE7B2F5AA7F03D84FEADC327732D8E75E
:1052300040F2545E724596BF4FEA9C427E227C3219
:10524000CFE7DEF808E0F04505D0DEF8042022F0D4
:1052500003026245F5D8DEF80C80D1E74801002052
:1052600050010020640C002050050020340C002068
:105270005C0C0020600C00206068D4F80CC020F0AA
:105280000300A0EB070ABAF10F0F12DDA368E219C1
:1052900047F001076760C3F80CC0CCF808304AF04B
:1052A0000103C6E90422C2E90211536044F800A0D8
:1052B00091E6BAF1000F11DB2044436843F001038B
:1052C000436054F8083F2846C3F80CC0CCF80830B7
:1052D00000F090F8204603B0BDE8F08F644611E777
:1052E00058F80809013B40453FF416AF1BE704336B
:1052F00052001042FBD0FFE67346FAE7D2F800E016
:10530000BEF1FF3F1BBFA4EB0B0B0BEB00021460C5
:105310001A6014F0070B0EBF5846CBF10800241892
:10532000621802EA0C018044A8EB010808EA0C08A4
:1053300041462846019201F04FFB431C019A294B3C
:1053400007D1BBF1000F23D04FF00008ABF10800EC
:1053500010441A68001B4044424440F00100B2452A
:10536000B4601A6060603FF428AFB9F10F0F12D833
:1053700001236360B3685B6823F00303BB42A3EBC4
:10538000070201D30F2A22DC284600F033F8FDE59E
:105390001046D846DDE70521DAF80420A9F10C090A
:1053A00029F0070902F0010242EA0902CAF80420C2
:1053B000B9F10F0F0AEB0902C2E901117FF6FDAE48
:1053C00028460AF10801FFF715FD064BF5E6B4681B
:1053D00047F0010342F0010227446360B7607A603E
:1053E000F9E500BF340C00200148FFF79DBC00BF69
:1053F0002D0C00200148FFF798BC00BF2D0C0020A9
:105400002DE9F04FD3B08A4693461D46814601F000
:10541000DFFA036818461793FAF79AFEBAF80C30C9
:105420001290180618D5DAF81030ABB9402148466A
:10543000FFF7A0FDCAF80000CAF8100048B90C2315
:10544000C9F800304FF0FF330F930F9853B0BDE809
:10545000F08F4023CAF8143000230022CDE927330F
:1054600009930023CDE910230023CDE9193329AC9A
:1054700026940D93159318930F935B461E4613F8CD
:10548000012B0AB1252AF9D1B6EB0B070DD0289BC9
:10549000C4E900B73B442893279B0133072B27938C
:1054A00079DC08340F9B3B440F933378002B01F0D9
:1054B000338100234FF0FF3298460A272B21013613
:1054C0008DF87B3007921393334613F8012B0B9220
:1054D0000E930B9B203B5A2B00F2A685DFE813F0BE
:1054E0007E00A405A4058600A405A405A405650006
:1054F000A405A40589009300A40590009600A405C6
:10550000B200B500B500B500B500B500B500B500F6
:10551000B500B500A405A405A405A405A405A4052B
:10552000A4052401A405E200F500240124012401BE
:10553000A405A405A405A405C500A405A405830429
:10554000A405A405A405CD04A405EE04A405A405A2
:105550001005A405A405A405A405A405A405A40597
:10556000A4052401A405E200F7002401240124017C
:10557000C800F700DC00A405D500A4055E0485047E
:10558000BC04DC00A405CD047C00F004A405A40543
:105590002F05A4057C005146484626AA02F04AFC85
:1055A000002840F02D8129AC7CE7484601F010FA34
:1055B000436818461893FAF7CBFD1590484601F05A
:1055C00007FA83682B210D93159B2BB10D9B1BB103
:1055D0001B780BB148F480680E9E75E79DF87B3010
:1055E000002BF9D120238DF87B30F5E748F0010836
:1055F000F2E755F8043B002B1393EDDA5B4213936B
:1056000048F00408E8E78DF87B10E5E70E9B13F8F7
:10561000012B2A2A0B9212D155F8042B0E9342EA41
:10562000E2720792D8E7079807FB0022079213F867
:10563000012B0B920B9A303A092AF4D948E7002241
:105640000792F7E748F08008C6E700220E9B139206
:105650000B9A1398303A07FB0022139213F8012B90
:105660000B92303A092AF3D932E748F00808B3E739
:105670000E9B1B78682B01BF0E9B48F4007801330A
:105680000E9318BF48F04008A6E70E9B1B786C2BC2
:1056900005D10E9B01330E9348F020089CE748F09B
:1056A000100899E72A4652F8043B8DF8E4300023AD
:1056B0000A928DF87B300027089301233E463D4631
:1056C00007930C970DF1E40BB0E148F0100818F0C7
:1056D000200F11D0073525F007031A4652F8085B52
:1056E0005E680A92002E05DA2D236D4266EB4606AF
:1056F0008DF87B30012389E32B4653F8046B18F0B7
:10570000100F0A9302D03546F617EBE718F0400F5A
:1057100003D035B246F3C036E4E718F4007FF2D088
:1057200075B246F3C016DDE7073525F007031946C5
:10573000F1E80223CDE91023DDE9106323F00045F1
:105740000A914FF0FF32304629463A4BFBF75EF99B
:1057500018BB4FF0FF3230462946364BFBF738F97D
:10576000D8B9DDE9100100220023FBF727F910B1B9
:105770002D238DF87B30304A304B0B9928F0800870
:105780004729D4BF93469B4603230021CDE9073127
:1057900000273E463B4600F0F9BFDDE910231046E6
:1057A0001946FBF733F940B1119B254A002BBCBFCA
:1057B0002D238DF87B30234BDFE70B9B23F0200359
:1057C000412B0C9325D130238DF87C300B9B48F076
:1057D0000208612B0CBF782358238DF87D30079B7E
:1057E000632B31DD4846591CFFF7C4FB8346002874
:1057F00040F0F881BAF80C3043F04003AAF80C30BE
:10580000BAF80C3013F0400F0F9B18BF4FF0FF3366
:105810001AE6079B013300F0E7810C9B472B40F011
:10582000E681079B002B40F0E28108930123079358
:105830000DE000BFFFFFEF7FD6940008DA94000868
:10584000DE940008E294000808900DF1E40B48F49F
:1058500080731493DDE910731D1EAEBF002303F1A6
:1058600000452D231C930C9B412B40F0D8813846DA
:1058700020AA294601F0EEF800224FF07F53FAF7F4
:105880002BFE0022002306460F46FBF78DF808B1D9
:1058900001232093AD4BAE4A0B995D46612918BF99
:1058A0001A46079B1B92013B09930022A94B3046E5
:1058B0003946FAF711FE0F460646FBF7BDF81D9074
:1058C000FAF7A0FD02460B4630463946FAF74CFC83
:1058D0001D9A1B9B06469B5C0F4605F8013B099BE6
:1058E0005A1C169307D0013B099300220023FBF7B3
:1058F0005BF80028D9D0002230463946964BFBF79A
:105900007BF860B9002230463946934BFBF74CF8E0
:10591000002800F07F811D9BDB0740F17B81302058
:105920001B9B2495D97B249A531E249312F8013C87
:105930008B4200F05E81392B0BBF1B9B01339B7A9E
:10594000DBB202F8013CA5EB0B0309930C9B209DF5
:10595000472B40F0B381EF1C03DB079BAB4280F287
:10596000D3810B9B023B0B930B999DF82C2021F0CC
:105970002001412908BF0F3205F1FF3306BFD2B223
:1059800001210021002B8DF88820B4BF2D222B226D
:105990002093B8BFC5F10103092B8DF8892040F38E
:1059A000A6810A260DF1970093FBF6F5024606FB49
:1059B0001531303102F8011C194663292B4600F1DC
:1059C000FF30F1DC3033911E00F8013C0B460DF145
:1059D00089050DF197008342C0F084810DF1990390
:1059E0009B1A814288BF00230DF18A021A4422AB20
:1059F000D31A099A1993012A1344079302DC18F069
:105A0000010F03D0079B129A1344079300263546D3
:105A100028F4806343F4807314930C961C9B13B199
:105A20002D238DF87B300027DDF85080079BBB428B
:105A3000B8BF3B4614939DF87B3013B1149B0133E0
:105A4000149318F002031B931EBF149B023314938C
:105A500018F084031C9321D1DDE913329B1A002B2B
:105A600016931BDDDDE927231698013210283B48E9
:105A700004F10801206000F3E6821698072A034427
:105A8000CDE92723606040F3F3825146484626AAB9
:105A900002F0D0F9002840F01D8629AC9DF87B204B
:105AA000289B6AB10DF17B022260012213442893E6
:105AB000279B62601344072B279300F3DB82083493
:105AC0001B9A289B62B11FAA2260022213442893CA
:105AD000279B62600133072B279300F3D58208349C
